{
  "_format": "hh-sol-artifact-1",
  "contractName": "EventTicket",
  "sourceName": "contracts/EventTicket.sol",
  "abi": [
    {
      "inputs": [
        {
          "internalType": "address",
          "name": "artistAddress",
          "type": "address"
        },
        {
          "internalType": "address",
          "name": "factoryAddress",
          "type": "address"
        },
        {
          "internalType": "uint256",
          "name": "_price",
          "type": "uint256"
        },
        {
          "internalType": "uint256",
          "name": "_maxSupply",
          "type": "uint256"
        },
        {
          "internalType": "uint256",
          "name": "_saleDeadline",
          "type": "uint256"
        },
        {
          "internalType": "string",
          "name": "_baseURI",
          "type": "string"
        }
      ],
      "stateMutability": "nonpayable",
      "type": "constructor"
    },
    {
      "inputs": [
        {
          "internalType": "address",
          "name": "sender",
          "type": "address"
        },
        {
          "internalType": "uint256",
          "name": "tokenId",
          "type": "uint256"
        },
        {
          "internalType": "address",
          "name": "owner",
          "type": "address"
        }
      ],
      "name": "ERC721IncorrectOwner",
      "type": "error"
    },
    {
      "inputs": [
        {
          "internalType": "address",
          "name": "operator",
          "type": "address"
        },
        {
          "internalType": "uint256",
          "name": "tokenId",
          "type": "uint256"
        }
      ],
      "name": "ERC721InsufficientApproval",
      "type": "error"
    },
    {
      "inputs": [
        {
          "internalType": "address",
          "name": "approver",
          "type": "address"
        }
      ],
      "name": "ERC721InvalidApprover",
      "type": "error"
    },
    {
      "inputs": [
        {
          "internalType": "address",
          "name": "operator",
          "type": "address"
        }
      ],
      "name": "ERC721InvalidOperator",
      "type": "error"
    },
    {
      "inputs": [
        {
          "internalType": "address",
          "name": "owner",
          "type": "address"
        }
      ],
      "name": "ERC721InvalidOwner",
      "type": "error"
    },
    {
      "inputs": [
        {
          "internalType": "address",
          "name": "receiver",
          "type": "address"
        }
      ],
      "name": "ERC721InvalidReceiver",
      "type": "error"
    },
    {
      "inputs": [
        {
          "internalType": "address",
          "name": "sender",
          "type": "address"
        }
      ],
      "name": "ERC721InvalidSender",
      "type": "error"
    },
    {
      "inputs": [
        {
          "internalType": "uint256",
          "name": "tokenId",
          "type": "uint256"
        }
      ],
      "name": "ERC721NonexistentToken",
      "type": "error"
    },
    {
      "inputs": [
        {
          "internalType": "address",
          "name": "owner",
          "type": "address"
        }
      ],
      "name": "OwnableInvalidOwner",
      "type": "error"
    },
    {
      "inputs": [
        {
          "internalType": "address",
          "name": "account",
          "type": "address"
        }
      ],
      "name": "OwnableUnauthorizedAccount",
      "type": "error"
    },
    {
      "anonymous": false,
      "inputs": [
        {
          "indexed": true,
          "internalType": "address",
          "name": "owner",
          "type": "address"
        },
        {
          "indexed": true,
          "internalType": "address",
          "name": "approved",
          "type": "address"
        },
        {
          "indexed": true,
          "internalType": "uint256",
          "name": "tokenId",
          "type": "uint256"
        }
      ],
      "name": "Approval",
      "type": "event"
    },
    {
      "anonymous": false,
      "inputs": [
        {
          "indexed": true,
          "internalType": "address",
          "name": "owner",
          "type": "address"
        },
        {
          "indexed": true,
          "internalType": "address",
          "name": "operator",
          "type": "address"
        },
        {
          "indexed": false,
          "internalType": "bool",
          "name": "approved",
          "type": "bool"
        }
      ],
      "name": "ApprovalForAll",
      "type": "event"
    },
    {
      "anonymous": false,
      "inputs": [
        {
          "indexed": true,
          "internalType": "address",
          "name": "previousOwner",
          "type": "address"
        },
        {
          "indexed": true,
          "internalType": "address",
          "name": "newOwner",
          "type": "address"
        }
      ],
      "name": "OwnershipTransferred",
      "type": "event"
    },
    {
      "anonymous": false,
      "inputs": [
        {
          "indexed": true,
          "internalType": "address",
          "name": "buyer",
          "type": "address"
        },
        {
          "indexed": false,
          "internalType": "uint256",
          "name": "ticketId",
          "type": "uint256"
        }
      ],
      "name": "TicketPurchased",
      "type": "event"
    },
    {
      "anonymous": false,
      "inputs": [
        {
          "indexed": true,
          "internalType": "address",
          "name": "from",
          "type": "address"
        },
        {
          "indexed": true,
          "internalType": "address",
          "name": "to",
          "type": "address"
        },
        {
          "indexed": true,
          "internalType": "uint256",
          "name": "tokenId",
          "type": "uint256"
        }
      ],
      "name": "Transfer",
      "type": "event"
    },
    {
      "inputs": [
        {
          "internalType": "address",
          "name": "to",
          "type": "address"
        },
        {
          "internalType": "uint256",
          "name": "tokenId",
          "type": "uint256"
        }
      ],
      "name": "approve",
      "outputs": [],
      "stateMutability": "nonpayable",
      "type": "function"
    },
    {
      "inputs": [
        {
          "internalType": "address",
          "name": "owner",
          "type": "address"
        }
      ],
      "name": "balanceOf",
      "outputs": [
        {
          "internalType": "uint256",
          "name": "",
          "type": "uint256"
        }
      ],
      "stateMutability": "view",
      "type": "function"
    },
    {
      "inputs": [],
      "name": "baseURI",
      "outputs": [
        {
          "internalType": "string",
          "name": "",
          "type": "string"
        }
      ],
      "stateMutability": "view",
      "type": "function"
    },
    {
      "inputs": [],
      "name": "emergencyWithdraw",
      "outputs": [],
      "stateMutability": "nonpayable",
      "type": "function"
    },
    {
      "inputs": [],
      "name": "factory",
      "outputs": [
        {
          "internalType": "address",
          "name": "",
          "type": "address"
        }
      ],
      "stateMutability": "view",
      "type": "function"
    },
    {
      "inputs": [
        {
          "internalType": "uint256",
          "name": "tokenId",
          "type": "uint256"
        }
      ],
      "name": "getApproved",
      "outputs": [
        {
          "internalType": "address",
          "name": "",
          "type": "address"
        }
      ],
      "stateMutability": "view",
      "type": "function"
    },
    {
      "inputs": [
        {
          "internalType": "address",
          "name": "owner",
          "type": "address"
        },
        {
          "internalType": "address",
          "name": "operator",
          "type": "address"
        }
      ],
      "name": "isApprovedForAll",
      "outputs": [
        {
          "internalType": "bool",
          "name": "",
          "type": "bool"
        }
      ],
      "stateMutability": "view",
      "type": "function"
    },
    {
      "inputs": [],
      "name": "maxSupply",
      "outputs": [
        {
          "internalType": "uint256",
          "name": "",
          "type": "uint256"
        }
      ],
      "stateMutability": "view",
      "type": "function"
    },
    {
      "inputs": [],
      "name": "mintTicket",
      "outputs": [],
      "stateMutability": "payable",
      "type": "function"
    },
    {
      "inputs": [],
      "name": "mintedCount",
      "outputs": [
        {
          "internalType": "uint256",
          "name": "",
          "type": "uint256"
        }
      ],
      "stateMutability": "view",
      "type": "function"
    },
    {
      "inputs": [],
      "name": "name",
      "outputs": [
        {
          "internalType": "string",
          "name": "",
          "type": "string"
        }
      ],
      "stateMutability": "view",
      "type": "function"
    },
    {
      "inputs": [],
      "name": "owner",
      "outputs": [
        {
          "internalType": "address",
          "name": "",
          "type": "address"
        }
      ],
      "stateMutability": "view",
      "type": "function"
    },
    {
      "inputs": [
        {
          "internalType": "uint256",
          "name": "tokenId",
          "type": "uint256"
        }
      ],
      "name": "ownerOf",
      "outputs": [
        {
          "internalType": "address",
          "name": "",
          "type": "address"
        }
      ],
      "stateMutability": "view",
      "type": "function"
    },
    {
      "inputs": [],
      "name": "price",
      "outputs": [
        {
          "internalType": "uint256",
          "name": "",
          "type": "uint256"
        }
      ],
      "stateMutability": "view",
      "type": "function"
    },
    {
      "inputs": [],
      "name": "renounceOwnership",
      "outputs": [],
      "stateMutability": "nonpayable",
      "type": "function"
    },
    {
      "inputs": [
        {
          "internalType": "address",
          "name": "from",
          "type": "address"
        },
        {
          "internalType": "address",
          "name": "to",
          "type": "address"
        },
        {
          "internalType": "uint256",
          "name": "tokenId",
          "type": "uint256"
        }
      ],
      "name": "safeTransferFrom",
      "outputs": [],
      "stateMutability": "nonpayable",
      "type": "function"
    },
    {
      "inputs": [
        {
          "internalType": "address",
          "name": "from",
          "type": "address"
        },
        {
          "internalType": "address",
          "name": "to",
          "type": "address"
        },
        {
          "internalType": "uint256",
          "name": "tokenId",
          "type": "uint256"
        },
        {
          "internalType": "bytes",
          "name": "data",
          "type": "bytes"
        }
      ],
      "name": "safeTransferFrom",
      "outputs": [],
      "stateMutability": "nonpayable",
      "type": "function"
    },
    {
      "inputs": [],
      "name": "saleDeadline",
      "outputs": [
        {
          "internalType": "uint256",
          "name": "",
          "type": "uint256"
        }
      ],
      "stateMutability": "view",
      "type": "function"
    },
    {
      "inputs": [
        {
          "internalType": "address",
          "name": "operator",
          "type": "address"
        },
        {
          "internalType": "bool",
          "name": "approved",
          "type": "bool"
        }
      ],
      "name": "setApprovalForAll",
      "outputs": [],
      "stateMutability": "nonpayable",
      "type": "function"
    },
    {
      "inputs": [
        {
          "internalType": "bytes4",
          "name": "interfaceId",
          "type": "bytes4"
        }
      ],
      "name": "supportsInterface",
      "outputs": [
        {
          "internalType": "bool",
          "name": "",
          "type": "bool"
        }
      ],
      "stateMutability": "view",
      "type": "function"
    },
    {
      "inputs": [],
      "name": "symbol",
      "outputs": [
        {
          "internalType": "string",
          "name": "",
          "type": "string"
        }
      ],
      "stateMutability": "view",
      "type": "function"
    },
    {
      "inputs": [
        {
          "internalType": "uint256",
          "name": "",
          "type": "uint256"
        }
      ],
      "name": "ticketToBuyer",
      "outputs": [
        {
          "internalType": "address",
          "name": "",
          "type": "address"
        }
      ],
      "stateMutability": "view",
      "type": "function"
    },
    {
      "inputs": [
        {
          "internalType": "uint256",
          "name": "ticketId",
          "type": "uint256"
        }
      ],
      "name": "tokenURI",
      "outputs": [
        {
          "internalType": "string",
          "name": "",
          "type": "string"
        }
      ],
      "stateMutability": "view",
      "type": "function"
    },
    {
      "inputs": [
        {
          "internalType": "address",
          "name": "from",
          "type": "address"
        },
        {
          "internalType": "address",
          "name": "to",
          "type": "address"
        },
        {
          "internalType": "uint256",
          "name": "tokenId",
          "type": "uint256"
        }
      ],
      "name": "transferFrom",
      "outputs": [],
      "stateMutability": "nonpayable",
      "type": "function"
    },
    {
      "inputs": [
        {
          "internalType": "address",
          "name": "newOwner",
          "type": "address"
        }
      ],
      "name": "transferOwnership",
      "outputs": [],
      "stateMutability": "nonpayable",
      "type": "function"
    },
    {
      "inputs": [
        {
          "internalType": "string",
          "name": "_newBaseURI",
          "type": "string"
        }
      ],
      "name": "updateBaseURI",
      "outputs": [],
      "stateMutability": "nonpayable",
      "type": "function"
    }
  ],
  "bytecode": "0x60a060405234801561001057600080fd5b50604051613cef380380613cef8339818101604052810190610032919061053e565b856040518060400160405280600d81526020017f417274697374205469636b6574000000000000000000000000000000000000008152506040518060400160405280600381526020017f544b54000000000000000000000000000000000000000000000000000000000081525081600090816100ae91906107fe565b5080600190816100be91906107fe565b505050600073ffffffffffffffffffffffffffffffffffffffff168173ffffffffffffffffffffffffffffffffffffffff16036101335760006040517f1e4fbdf700000000000000000000000000000000000000000000000000000000815260040161012a91906108df565b60405180910390fd5b6101428161026f60201b60201c565b5060008411610186576040517f08c379a000000000000000000000000000000000000000000000000000000000815260040161017d90610957565b60405180910390fd5b600083116101c9576040517f08c379a00000000000000000000000000000000000000000000000000000000081526004016101c0906109c3565b60405180910390fd5b42821161020b576040517f08c379a000000000000000000000000000000000000000000000000000000000815260040161020290610a2f565b60405180910390fd5b8473ffffffffffffffffffffffffffffffffffffffff1660808173ffffffffffffffffffffffffffffffffffffffff1681525050836007819055508260088190555081600a8190555080600b908161026391906107fe565b50505050505050610a4f565b6000600660009054906101000a900473ffffffffffffffffffffffffffffffffffffffff16905081600660006101000a81548173ffffffffffffffffffffffffffffffffffffffff021916908373ffffffffffffffffffffffffffffffffffffffff1602179055508173ffffffffffffffffffffffffffffffffffffffff168173ffffffffffffffffffffffffffffffffffffffff167f8be0079c531659141344cd1fd0a4f28419497f9722a3daafe3b4186f6b6457e060405160405180910390a35050565b6000604051905090565b600080fd5b600080fd5b600073ffffffffffffffffffffffffffffffffffffffff82169050919050565b600061037482610349565b9050919050565b61038481610369565b811461038f57600080fd5b50565b6000815190506103a18161037b565b92915050565b6000819050919050565b6103ba816103a7565b81146103c557600080fd5b50565b6000815190506103d7816103b1565b92915050565b600080fd5b600080fd5b6000601f19601f8301169050919050565b7f4e487b7100000000000000000000000000000000000000000000000000000000600052604160045260246000fd5b610430826103e7565b810181811067ffffffffffffffff8211171561044f5761044e6103f8565b5b80604052505050565b6000610462610335565b905061046e8282610427565b919050565b600067ffffffffffffffff82111561048e5761048d6103f8565b5b610497826103e7565b9050602081019050919050565b60005b838110156104c25780820151818401526020810190506104a7565b60008484015250505050565b60006104e16104dc84610473565b610458565b9050828152602081018484840111156104fd576104fc6103e2565b5b6105088482856104a4565b509392505050565b600082601f830112610525576105246103dd565b5b81516105358482602086016104ce565b91505092915050565b60008060008060008060c0878903121561055b5761055a61033f565b5b600061056989828a01610392565b965050602061057a89828a01610392565b955050604061058b89828a016103c8565b945050606061059c89828a016103c8565b93505060806105ad89828a016103c8565b92505060a087015167ffffffffffffffff8111156105ce576105cd610344565b5b6105da89828a01610510565b9150509295509295509295565b600081519050919050565b7f4e487b7100000000000000000000000000000000000000000000000000000000600052602260045260246000fd5b6000600282049050600182168061063957607f821691505b60208210810361064c5761064b6105f2565b5b50919050565b60008190508160005260206000209050919050565b60006020601f8301049050919050565b600082821b905092915050565b6000600883026106b47fffffffffffffffffffffffffffffffffffffffffffffffffffffffffffffffff82610677565b6106be8683610677565b95508019841693508086168417925050509392505050565b6000819050919050565b60006106fb6106f66106f1846103a7565b6106d6565b6103a7565b9050919050565b6000819050919050565b610715836106e0565b61072961072182610702565b848454610684565b825550505050565b600090565b61073e610731565b61074981848461070c565b505050565b5b8181101561076d57610762600082610736565b60018101905061074f565b5050565b601f8211156107b25761078381610652565b61078c84610667565b8101602085101561079b578190505b6107af6107a785610667565b83018261074e565b50505b505050565b600082821c905092915050565b60006107d5600019846008026107b7565b1980831691505092915050565b60006107ee83836107c4565b9150826002028217905092915050565b610807826105e7565b67ffffffffffffffff8111156108205761081f6103f8565b5b61082a8254610621565b610835828285610771565b600060209050601f8311600181146108685760008415610856578287015190505b61086085826107e2565b8655506108c8565b601f19841661087686610652565b60005b8281101561089e57848901518255600182019150602085019450602081019050610879565b868310156108bb57848901516108b7601f8916826107c4565b8355505b6001600288020188555050505b505050505050565b6108d981610369565b82525050565b60006020820190506108f460008301846108d0565b92915050565b600082825260208201905092915050565b7f5072696365206d757374206265203e2030000000000000000000000000000000600082015250565b60006109416011836108fa565b915061094c8261090b565b602082019050919050565b6000602082019050818103600083015261097081610934565b9050919050565b7f4d617820737570706c79206d757374206265203e203000000000000000000000600082015250565b60006109ad6016836108fa565b91506109b882610977565b602082019050919050565b600060208201905081810360008301526109dc816109a0565b9050919050565b7f496e76616c696420646561646c696e6500000000000000000000000000000000600082015250565b6000610a196010836108fa565b9150610a24826109e3565b602082019050919050565b60006020820190508181036000830152610a4881610a0c565b9050919050565b60805161327e610a7160003960008181610a360152610f24015261327e6000f3fe6080604052600436106101815760003560e01c8063931688cb116100d1578063c83c79c61161008a578063d5abeb0111610064578063d5abeb0114610563578063db2e21bc1461058e578063e985e9c5146105a5578063f2fde38b146105e257610181565b8063c83c79c6146104be578063c87b56dd146104fb578063cf721b151461053857610181565b8063931688cb146103c257806395d89b41146103eb578063a035b1fe14610416578063a22cb46514610441578063b88d4fde1461046a578063c45a01551461049357610181565b8063573c80fa1161013e57806370a082311161011857806370a0823114610318578063715018a614610355578063888ea1201461036c5780638da5cb5b1461039757610181565b8063573c80fa146102a65780636352211e146102b05780636c0360eb146102ed57610181565b806301ffc9a71461018657806306fdde03146101c3578063081812fc146101ee578063095ea7b31461022b57806323b872dd1461025457806342842e0e1461027d575b600080fd5b34801561019257600080fd5b506101ad60048036038101906101a891906120b4565b61060b565b6040516101ba91906120fc565b60405180910390f35b3480156101cf57600080fd5b506101d86106ed565b6040516101e591906121a7565b60405180910390f35b3480156101fa57600080fd5b50610215600480360381019061021091906121ff565b61077f565b604051610222919061226d565b60405180910390f35b34801561023757600080fd5b50610252600480360381019061024d91906122b4565b61079b565b005b34801561026057600080fd5b5061027b600480360381019061027691906122f4565b6107b1565b005b34801561028957600080fd5b506102a4600480360381019061029f91906122f4565b6108b3565b005b6102ae6108d3565b005b3480156102bc57600080fd5b506102d760048036038101906102d291906121ff565b610c96565b6040516102e4919061226d565b60405180910390f35b3480156102f957600080fd5b50610302610ca8565b60405161030f91906121a7565b60405180910390f35b34801561032457600080fd5b5061033f600480360381019061033a9190612347565b610d36565b60405161034c9190612383565b60405180910390f35b34801561036157600080fd5b5061036a610df0565b005b34801561037857600080fd5b50610381610e04565b60405161038e9190612383565b60405180910390f35b3480156103a357600080fd5b506103ac610e0a565b6040516103b9919061226d565b60405180910390f35b3480156103ce57600080fd5b506103e960048036038101906103e491906124d3565b610e34565b005b3480156103f757600080fd5b50610400610e4f565b60405161040d91906121a7565b60405180910390f35b34801561042257600080fd5b5061042b610ee1565b6040516104389190612383565b60405180910390f35b34801561044d57600080fd5b5061046860048036038101906104639190612548565b610ee7565b005b34801561047657600080fd5b50610491600480360381019061048c9190612629565b610efd565b005b34801561049f57600080fd5b506104a8610f22565b6040516104b5919061226d565b60405180910390f35b3480156104ca57600080fd5b506104e560048036038101906104e091906121ff565b610f46565b6040516104f2919061226d565b60405180910390f35b34801561050757600080fd5b50610522600480360381019061051d91906121ff565b610f79565b60405161052f91906121a7565b60405180910390f35b34801561054457600080fd5b5061054d611024565b60405161055a9190612383565b60405180910390f35b34801561056f57600080fd5b5061057861102a565b6040516105859190612383565b60405180910390f35b34801561059a57600080fd5b506105a3611030565b005b3480156105b157600080fd5b506105cc60048036038101906105c791906126ac565b611137565b6040516105d991906120fc565b60405180910390f35b3480156105ee57600080fd5b5061060960048036038101906106049190612347565b6111cb565b005b60007f80ac58cd000000000000000000000000000000000000000000000000000000007bffffffffffffffffffffffffffffffffffffffffffffffffffffffff1916827bffffffffffffffffffffffffffffffffffffffffffffffffffffffff191614806106d657507f5b5e139f000000000000000000000000000000000000000000000000000000007bffffffffffffffffffffffffffffffffffffffffffffffffffffffff1916827bffffffffffffffffffffffffffffffffffffffffffffffffffffffff1916145b806106e657506106e582611251565b5b9050919050565b6060600080546106fc9061271b565b80601f01602080910402602001604051908101604052809291908181526020018280546107289061271b565b80156107755780601f1061074a57610100808354040283529160200191610775565b820191906000526020600020905b81548152906001019060200180831161075857829003601f168201915b5050505050905090565b600061078a826112bb565b5061079482611343565b9050919050565b6107ad82826107a8611380565b611388565b5050565b600073ffffffffffffffffffffffffffffffffffffffff168273ffffffffffffffffffffffffffffffffffffffff16036108235760006040517f64a0ae9200000000000000000000000000000000000000000000000000000000815260040161081a919061226d565b60405180910390fd5b60006108378383610832611380565b61139a565b90508373ffffffffffffffffffffffffffffffffffffffff168173ffffffffffffffffffffffffffffffffffffffff16146108ad578382826040517f64283d7b0000000000000000000000000000000000000000000000000000000081526004016108a49392919061274c565b60405180910390fd5b50505050565b6108ce83838360405180602001604052806000815250610efd565b505050565b600a54421115610918576040517f08c379a000000000000000000000000000000000000000000000000000000000815260040161090f906127cf565b60405180910390fd5b6008546009541061095e576040517f08c379a00000000000000000000000000000000000000000000000000000000081526004016109559061283b565b60405180910390fd5b60075434146109a2576040517f08c379a0000000000000000000000000000000000000000000000000000000008152600401610999906128a7565b60405180910390fd5b6000600d60008154809291906109b7906128f6565b9190505590506109c733826115b4565b33600c600083815260200190815260200160002060006101000a81548173ffffffffffffffffffffffffffffffffffffffff021916908373ffffffffffffffffffffffffffffffffffffffff16021790555060096000815480929190610a2c906128f6565b91905055506000807f000000000000000000000000000000000000000000000000000000000000000073ffffffffffffffffffffffffffffffffffffffff16639609c548346040518263ffffffff1660e01b8152600401610a8d9190612383565b6040805180830381865afa158015610aa9573d6000803e3d6000fd5b505050506040513d601f19601f82011682018060405250810190610acd9190612991565b9150915060008134610adf91906129d1565b905060008373ffffffffffffffffffffffffffffffffffffffff1683604051610b0790612a36565b60006040518083038185875af1925050503d8060008114610b44576040519150601f19603f3d011682016040523d82523d6000602084013e610b49565b606091505b5050905080610b8d576040517f08c379a0000000000000000000000000000000000000000000000000000000008152600401610b8490612a97565b60405180910390fd5b6000610b97610e0a565b73ffffffffffffffffffffffffffffffffffffffff1683604051610bba90612a36565b60006040518083038185875af1925050503d8060008114610bf7576040519150601f19603f3d011682016040523d82523d6000602084013e610bfc565b606091505b5050905080610c40576040517f08c379a0000000000000000000000000000000000000000000000000000000008152600401610c3790612b03565b60405180910390fd5b3373ffffffffffffffffffffffffffffffffffffffff167f0668f5b446eb814fe35b3206f43f14bd8567ba04ddaf7a3ee56516929ab22ccb87604051610c869190612383565b60405180910390a2505050505050565b6000610ca1826112bb565b9050919050565b600b8054610cb59061271b565b80601f0160208091040260200160405190810160405280929190818152602001828054610ce19061271b565b8015610d2e5780601f10610d0357610100808354040283529160200191610d2e565b820191906000526020600020905b815481529060010190602001808311610d1157829003601f168201915b505050505081565b60008073ffffffffffffffffffffffffffffffffffffffff168273ffffffffffffffffffffffffffffffffffffffff1603610da95760006040517f89c62b64000000000000000000000000000000000000000000000000000000008152600401610da0919061226d565b60405180910390fd5b600360008373ffffffffffffffffffffffffffffffffffffffff1673ffffffffffffffffffffffffffffffffffffffff168152602001908152602001600020549050919050565b610df86115d2565b610e026000611659565b565b600a5481565b6000600660009054906101000a900473ffffffffffffffffffffffffffffffffffffffff16905090565b610e3c6115d2565b80600b9081610e4b9190612ccf565b5050565b606060018054610e5e9061271b565b80601f0160208091040260200160405190810160405280929190818152602001828054610e8a9061271b565b8015610ed75780601f10610eac57610100808354040283529160200191610ed7565b820191906000526020600020905b815481529060010190602001808311610eba57829003601f168201915b5050505050905090565b60075481565b610ef9610ef2611380565b838361171f565b5050565b610f088484846107b1565b610f1c610f13611380565b8585858561188e565b50505050565b7f000000000000000000000000000000000000000000000000000000000000000081565b600c6020528060005260406000206000915054906101000a900473ffffffffffffffffffffffffffffffffffffffff1681565b6060600073ffffffffffffffffffffffffffffffffffffffff16610f9c83610c96565b73ffffffffffffffffffffffffffffffffffffffff1603610ff2576040517f08c379a0000000000000000000000000000000000000000000000000000000008152600401610fe990612ded565b60405180910390fd5b600b610ffd83611a3f565b60405160200161100e929190612f18565b6040516020818303038152906040529050919050565b60095481565b60085481565b6110386115d2565b600047905060008111611080576040517f08c379a000000000000000000000000000000000000000000000000000000000815260040161107790612f93565b60405180910390fd5b600061108a610e0a565b73ffffffffffffffffffffffffffffffffffffffff16826040516110ad90612a36565b60006040518083038185875af1925050503d80600081146110ea576040519150601f19603f3d011682016040523d82523d6000602084013e6110ef565b606091505b5050905080611133576040517f08c379a000000000000000000000000000000000000000000000000000000000815260040161112a90612fff565b60405180910390fd5b5050565b6000600560008473ffffffffffffffffffffffffffffffffffffffff1673ffffffffffffffffffffffffffffffffffffffff16815260200190815260200160002060008373ffffffffffffffffffffffffffffffffffffffff1673ffffffffffffffffffffffffffffffffffffffff16815260200190815260200160002060009054906101000a900460ff16905092915050565b6111d36115d2565b600073ffffffffffffffffffffffffffffffffffffffff168173ffffffffffffffffffffffffffffffffffffffff16036112455760006040517f1e4fbdf700000000000000000000000000000000000000000000000000000000815260040161123c919061226d565b60405180910390fd5b61124e81611659565b50565b60007f01ffc9a7000000000000000000000000000000000000000000000000000000007bffffffffffffffffffffffffffffffffffffffffffffffffffffffff1916827bffffffffffffffffffffffffffffffffffffffffffffffffffffffff1916149050919050565b6000806112c783611ba4565b9050600073ffffffffffffffffffffffffffffffffffffffff168173ffffffffffffffffffffffffffffffffffffffff160361133a57826040517f7e2732890000000000000000000000000000000000000000000000000000000081526004016113319190612383565b60405180910390fd5b80915050919050565b60006004600083815260200190815260200160002060009054906101000a900473ffffffffffffffffffffffffffffffffffffffff169050919050565b600033905090565b6113958383836001611be1565b505050565b6000806113a684611ba4565b9050600073ffffffffffffffffffffffffffffffffffffffff168373ffffffffffffffffffffffffffffffffffffffff16146113e8576113e7818486611da6565b5b600073ffffffffffffffffffffffffffffffffffffffff168173ffffffffffffffffffffffffffffffffffffffff16146114795761142a600085600080611be1565b6001600360008373ffffffffffffffffffffffffffffffffffffffff1673ffffffffffffffffffffffffffffffffffffffff168152602001908152602001600020600082825403925050819055505b600073ffffffffffffffffffffffffffffffffffffffff168573ffffffffffffffffffffffffffffffffffffffff16146114fc576001600360008773ffffffffffffffffffffffffffffffffffffffff1673ffffffffffffffffffffffffffffffffffffffff168152602001908152602001600020600082825401925050819055505b846002600086815260200190815260200160002060006101000a81548173ffffffffffffffffffffffffffffffffffffffff021916908373ffffffffffffffffffffffffffffffffffffffff160217905550838573ffffffffffffffffffffffffffffffffffffffff168273ffffffffffffffffffffffffffffffffffffffff167fddf252ad1be2c89b69c2b068fc378daa952ba7f163c4a11628f55a4df523b3ef60405160405180910390a4809150509392505050565b6115ce828260405180602001604052806000815250611e6a565b5050565b6115da611380565b73ffffffffffffffffffffffffffffffffffffffff166115f8610e0a565b73ffffffffffffffffffffffffffffffffffffffff16146116575761161b611380565b6040517f118cdaa700000000000000000000000000000000000000000000000000000000815260040161164e919061226d565b60405180910390fd5b565b6000600660009054906101000a900473ffffffffffffffffffffffffffffffffffffffff16905081600660006101000a81548173ffffffffffffffffffffffffffffffffffffffff021916908373ffffffffffffffffffffffffffffffffffffffff1602179055508173ffffffffffffffffffffffffffffffffffffffff168173ffffffffffffffffffffffffffffffffffffffff167f8be0079c531659141344cd1fd0a4f28419497f9722a3daafe3b4186f6b6457e060405160405180910390a35050565b600073ffffffffffffffffffffffffffffffffffffffff168273ffffffffffffffffffffffffffffffffffffffff160361179057816040517f5b08ba18000000000000000000000000000000000000000000000000000000008152600401611787919061226d565b60405180910390fd5b80600560008573ffffffffffffffffffffffffffffffffffffffff1673ffffffffffffffffffffffffffffffffffffffff16815260200190815260200160002060008473ffffffffffffffffffffffffffffffffffffffff1673ffffffffffffffffffffffffffffffffffffffff16815260200190815260200160002060006101000a81548160ff0219169083151502179055508173ffffffffffffffffffffffffffffffffffffffff168373ffffffffffffffffffffffffffffffffffffffff167f17307eab39ab6107e8899845ad3d59bd9653f200f220920489ca2b5937696c318360405161188191906120fc565b60405180910390a3505050565b60008373ffffffffffffffffffffffffffffffffffffffff163b1115611a38578273ffffffffffffffffffffffffffffffffffffffff1663150b7a02868685856040518563ffffffff1660e01b81526004016118ed9493929190613074565b6020604051808303816000875af192505050801561192957506040513d601f19601f8201168201806040525081019061192691906130d5565b60015b6119ad573d8060008114611959576040519150601f19603f3d011682016040523d82523d6000602084013e61195e565b606091505b5060008151036119a557836040517f64a0ae9200000000000000000000000000000000000000000000000000000000815260040161199c919061226d565b60405180910390fd5b805160208201fd5b63150b7a0260e01b7bffffffffffffffffffffffffffffffffffffffffffffffffffffffff1916817bffffffffffffffffffffffffffffffffffffffffffffffffffffffff191614611a3657836040517f64a0ae92000000000000000000000000000000000000000000000000000000008152600401611a2d919061226d565b60405180910390fd5b505b5050505050565b606060008203611a86576040518060400160405280600181526020017f30000000000000000000000000000000000000000000000000000000000000008152509050611b9f565b600082905060005b60008214611ab8578080611aa1906128f6565b915050600a82611ab19190613131565b9150611a8e565b60008167ffffffffffffffff811115611ad457611ad36123a8565b5b6040519080825280601f01601f191660200182016040528015611b065781602001600182028036833780820191505090505b50905060008290505b60008614611b97578080611b2290613162565b915050600a86611b32919061318b565b6030611b3e91906131bc565b60f81b828281518110611b5457611b536131f0565b5b60200101907effffffffffffffffffffffffffffffffffffffffffffffffffffffffffffff1916908160001a905350600a86611b909190613131565b9550611b0f565b819450505050505b919050565b60006002600083815260200190815260200160002060009054906101000a900473ffffffffffffffffffffffffffffffffffffffff169050919050565b8080611c1a5750600073ffffffffffffffffffffffffffffffffffffffff168273ffffffffffffffffffffffffffffffffffffffff1614155b15611d4e576000611c2a846112bb565b9050600073ffffffffffffffffffffffffffffffffffffffff168373ffffffffffffffffffffffffffffffffffffffff1614158015611c9557508273ffffffffffffffffffffffffffffffffffffffff168173ffffffffffffffffffffffffffffffffffffffff1614155b8015611ca85750611ca68184611137565b155b15611cea57826040517fa9fbf51f000000000000000000000000000000000000000000000000000000008152600401611ce1919061226d565b60405180910390fd5b8115611d4c57838573ffffffffffffffffffffffffffffffffffffffff168273ffffffffffffffffffffffffffffffffffffffff167f8c5be1e5ebec7d5bd14f71427d1e84f3dd0314c0f7b2291e5b200ac8c7c3b92560405160405180910390a45b505b836004600085815260200190815260200160002060006101000a81548173ffffffffffffffffffffffffffffffffffffffff021916908373ffffffffffffffffffffffffffffffffffffffff16021790555050505050565b611db1838383611e8e565b611e6557600073ffffffffffffffffffffffffffffffffffffffff168373ffffffffffffffffffffffffffffffffffffffff1603611e2657806040517f7e273289000000000000000000000000000000000000000000000000000000008152600401611e1d9190612383565b60405180910390fd5b81816040517f177e802f000000000000000000000000000000000000000000000000000000008152600401611e5c92919061321f565b60405180910390fd5b505050565b611e748383611f4f565b611e89611e7f611380565b600085858561188e565b505050565b60008073ffffffffffffffffffffffffffffffffffffffff168373ffffffffffffffffffffffffffffffffffffffff1614158015611f4657508273ffffffffffffffffffffffffffffffffffffffff168473ffffffffffffffffffffffffffffffffffffffff161480611f075750611f068484611137565b5b80611f4557508273ffffffffffffffffffffffffffffffffffffffff16611f2d83611343565b73ffffffffffffffffffffffffffffffffffffffff16145b5b90509392505050565b600073ffffffffffffffffffffffffffffffffffffffff168273ffffffffffffffffffffffffffffffffffffffff1603611fc15760006040517f64a0ae92000000000000000000000000000000000000000000000000000000008152600401611fb8919061226d565b60405180910390fd5b6000611fcf8383600061139a565b9050600073ffffffffffffffffffffffffffffffffffffffff168173ffffffffffffffffffffffffffffffffffffffff16146120435760006040517f73c6ac6e00000000000000000000000000000000000000000000000000000000815260040161203a919061226d565b60405180910390fd5b505050565b6000604051905090565b600080fd5b600080fd5b60007fffffffff0000000000000000000000000000000000000000000000000000000082169050919050565b6120918161205c565b811461209c57600080fd5b50565b6000813590506120ae81612088565b92915050565b6000602082840312156120ca576120c9612052565b5b60006120d88482850161209f565b91505092915050565b60008115159050919050565b6120f6816120e1565b82525050565b600060208201905061211160008301846120ed565b92915050565b600081519050919050565b600082825260208201905092915050565b60005b83811015612151578082015181840152602081019050612136565b60008484015250505050565b6000601f19601f8301169050919050565b600061217982612117565b6121838185612122565b9350612193818560208601612133565b61219c8161215d565b840191505092915050565b600060208201905081810360008301526121c1818461216e565b905092915050565b6000819050919050565b6121dc816121c9565b81146121e757600080fd5b50565b6000813590506121f9816121d3565b92915050565b60006020828403121561221557612214612052565b5b6000612223848285016121ea565b91505092915050565b600073ffffffffffffffffffffffffffffffffffffffff82169050919050565b60006122578261222c565b9050919050565b6122678161224c565b82525050565b6000602082019050612282600083018461225e565b92915050565b6122918161224c565b811461229c57600080fd5b50565b6000813590506122ae81612288565b92915050565b600080604083850312156122cb576122ca612052565b5b60006122d98582860161229f565b92505060206122ea858286016121ea565b9150509250929050565b60008060006060848603121561230d5761230c612052565b5b600061231b8682870161229f565b935050602061232c8682870161229f565b925050604061233d868287016121ea565b9150509250925092565b60006020828403121561235d5761235c612052565b5b600061236b8482850161229f565b91505092915050565b61237d816121c9565b82525050565b60006020820190506123986000830184612374565b92915050565b600080fd5b600080fd5b7f4e487b7100000000000000000000000000000000000000000000000000000000600052604160045260246000fd5b6123e08261215d565b810181811067ffffffffffffffff821117156123ff576123fe6123a8565b5b80604052505050565b6000612412612048565b905061241e82826123d7565b919050565b600067ffffffffffffffff82111561243e5761243d6123a8565b5b6124478261215d565b9050602081019050919050565b82818337600083830152505050565b600061247661247184612423565b612408565b905082815260208101848484011115612492576124916123a3565b5b61249d848285612454565b509392505050565b600082601f8301126124ba576124b961239e565b5b81356124ca848260208601612463565b91505092915050565b6000602082840312156124e9576124e8612052565b5b600082013567ffffffffffffffff81111561250757612506612057565b5b612513848285016124a5565b91505092915050565b612525816120e1565b811461253057600080fd5b50565b6000813590506125428161251c565b92915050565b6000806040838503121561255f5761255e612052565b5b600061256d8582860161229f565b925050602061257e85828601612533565b9150509250929050565b600067ffffffffffffffff8211156125a3576125a26123a8565b5b6125ac8261215d565b9050602081019050919050565b60006125cc6125c784612588565b612408565b9050828152602081018484840111156125e8576125e76123a3565b5b6125f3848285612454565b509392505050565b600082601f8301126126105761260f61239e565b5b81356126208482602086016125b9565b91505092915050565b6000806000806080858703121561264357612642612052565b5b60006126518782880161229f565b94505060206126628782880161229f565b9350506040612673878288016121ea565b925050606085013567ffffffffffffffff81111561269457612693612057565b5b6126a0878288016125fb565b91505092959194509250565b600080604083850312156126c3576126c2612052565b5b60006126d18582860161229f565b92505060206126e28582860161229f565b9150509250929050565b7f4e487b7100000000000000000000000000000000000000000000000000000000600052602260045260246000fd5b6000600282049050600182168061273357607f821691505b602082108103612746576127456126ec565b5b50919050565b6000606082019050612761600083018661225e565b61276e6020830185612374565b61277b604083018461225e565b949350505050565b7f53616c6520656e64656400000000000000000000000000000000000000000000600082015250565b60006127b9600a83612122565b91506127c482612783565b602082019050919050565b600060208201905081810360008301526127e8816127ac565b9050919050565b7f536f6c64206f7574000000000000000000000000000000000000000000000000600082015250565b6000612825600883612122565b9150612830826127ef565b602082019050919050565b6000602082019050818103600083015261285481612818565b9050919050565b7f496e636f7272656374207061796d656e74000000000000000000000000000000600082015250565b6000612891601183612122565b915061289c8261285b565b602082019050919050565b600060208201905081810360008301526128c081612884565b9050919050565b7f4e487b7100000000000000000000000000000000000000000000000000000000600052601160045260246000fd5b6000612901826121c9565b91507fffffffffffffffffffffffffffffffffffffffffffffffffffffffffffffffff8203612933576129326128c7565b5b600182019050919050565b60006129498261222c565b9050919050565b6129598161293e565b811461296457600080fd5b50565b60008151905061297681612950565b92915050565b60008151905061298b816121d3565b92915050565b600080604083850312156129a8576129a7612052565b5b60006129b685828601612967565b92505060206129c78582860161297c565b9150509250929050565b60006129dc826121c9565b91506129e7836121c9565b92508282039050818111156129ff576129fe6128c7565b5b92915050565b600081905092915050565b50565b6000612a20600083612a05565b9150612a2b82612a10565b600082019050919050565b6000612a4182612a13565b9150819050919050565b7f41646d696e20666565206661696c656400000000000000000000000000000000600082015250565b6000612a81601083612122565b9150612a8c82612a4b565b602082019050919050565b60006020820190508181036000830152612ab081612a74565b9050919050565b7f417274697374207061796f7574206661696c6564000000000000000000000000600082015250565b6000612aed601483612122565b9150612af882612ab7565b602082019050919050565b60006020820190508181036000830152612b1c81612ae0565b9050919050565b60008190508160005260206000209050919050565b60006020601f8301049050919050565b600082821b905092915050565b600060088302612b857fffffffffffffffffffffffffffffffffffffffffffffffffffffffffffffffff82612b48565b612b8f8683612b48565b95508019841693508086168417925050509392505050565b6000819050919050565b6000612bcc612bc7612bc2846121c9565b612ba7565b6121c9565b9050919050565b6000819050919050565b612be683612bb1565b612bfa612bf282612bd3565b848454612b55565b825550505050565b600090565b612c0f612c02565b612c1a818484612bdd565b505050565b5b81811015612c3e57612c33600082612c07565b600181019050612c20565b5050565b601f821115612c8357612c5481612b23565b612c5d84612b38565b81016020851015612c6c578190505b612c80612c7885612b38565b830182612c1f565b50505b505050565b600082821c905092915050565b6000612ca660001984600802612c88565b1980831691505092915050565b6000612cbf8383612c95565b9150826002028217905092915050565b612cd882612117565b67ffffffffffffffff811115612cf157612cf06123a8565b5b612cfb825461271b565b612d06828285612c42565b600060209050601f831160018114612d395760008415612d27578287015190505b612d318582612cb3565b865550612d99565b601f198416612d4786612b23565b60005b82811015612d6f57848901518255600182019150602085019450602081019050612d4a565b86831015612d8c5784890151612d88601f891682612c95565b8355505b6001600288020188555050505b505050505050565b7f5469636b6574206e6f7420657869737400000000000000000000000000000000600082015250565b6000612dd7601083612122565b9150612de282612da1565b602082019050919050565b60006020820190508181036000830152612e0681612dca565b9050919050565b600081905092915050565b60008154612e258161271b565b612e2f8186612e0d565b94506001821660008114612e4a5760018114612e5f57612e92565b60ff1983168652811515820286019350612e92565b612e6885612b23565b60005b83811015612e8a57815481890152600182019150602081019050612e6b565b838801955050505b50505092915050565b6000612ea682612117565b612eb08185612e0d565b9350612ec0818560208601612133565b80840191505092915050565b7f2e6a736f6e000000000000000000000000000000000000000000000000000000600082015250565b6000612f02600583612e0d565b9150612f0d82612ecc565b600582019050919050565b6000612f248285612e18565b9150612f308284612e9b565b9150612f3b82612ef5565b91508190509392505050565b7f4e6f2062616c616e636500000000000000000000000000000000000000000000600082015250565b6000612f7d600a83612122565b9150612f8882612f47565b602082019050919050565b60006020820190508181036000830152612fac81612f70565b9050919050565b7f5769746864726177206661696c65640000000000000000000000000000000000600082015250565b6000612fe9600f83612122565b9150612ff482612fb3565b602082019050919050565b6000602082019050818103600083015261301881612fdc565b9050919050565b600081519050919050565b600082825260208201905092915050565b60006130468261301f565b613050818561302a565b9350613060818560208601612133565b6130698161215d565b840191505092915050565b6000608082019050613089600083018761225e565b613096602083018661225e565b6130a36040830185612374565b81810360608301526130b5818461303b565b905095945050505050565b6000815190506130cf81612088565b92915050565b6000602082840312156130eb576130ea612052565b5b60006130f9848285016130c0565b91505092915050565b7f4e487b7100000000000000000000000000000000000000000000000000000000600052601260045260246000fd5b600061313c826121c9565b9150613147836121c9565b92508261315757613156613102565b5b828204905092915050565b600061316d826121c9565b9150600082036131805761317f6128c7565b5b600182039050919050565b6000613196826121c9565b91506131a1836121c9565b9250826131b1576131b0613102565b5b828206905092915050565b60006131c7826121c9565b91506131d2836121c9565b92508282019050808211156131ea576131e96128c7565b5b92915050565b7f4e487b7100000000000000000000000000000000000000000000000000000000600052603260045260246000fd5b6000604082019050613234600083018561225e565b6132416020830184612374565b939250505056fea26469706673582212200ed0dccb1424f39f93ef3e0760b59af4a564a6c17b8dbe7b953535993d2b676664736f6c634300081c0033",
  "linkReferences": {},
  "deployedLinkReferences": {}
}