{
  "_format": "hh-sol-artifact-1",
  "contractName": "ResaleMarketplace",
  "sourceName": "contracts/ResaleMarketplace.sol",
  "abi": [
    {
      "inputs": [
        {
          "internalType": "address payable",
          "name": "_platformWallet",
          "type": "address"
        }
      ],
      "stateMutability": "nonpayable",
      "type": "constructor"
    },
    {
      "anonymous": false,
      "inputs": [
        {
          "indexed": true,
          "internalType": "address",
          "name": "contractAddress",
          "type": "address"
        },
        {
          "indexed": false,
          "internalType": "uint256",
          "name": "tokenId",
          "type": "uint256"
        }
      ],
      "name": "ListingCancelled",
      "type": "event"
    },
    {
      "anonymous": false,
      "inputs": [
        {
          "indexed": true,
          "internalType": "address",
          "name": "contractAddress",
          "type": "address"
        },
        {
          "indexed": false,
          "internalType": "uint256",
          "name": "tokenId",
          "type": "uint256"
        },
        {
          "indexed": false,
          "internalType": "uint256",
          "name": "price",
          "type": "uint256"
        },
        {
          "indexed": false,
          "internalType": "address",
          "name": "seller",
          "type": "address"
        }
      ],
      "name": "TicketListed",
      "type": "event"
    },
    {
      "anonymous": false,
      "inputs": [
        {
          "indexed": true,
          "internalType": "address",
          "name": "contractAddress",
          "type": "address"
        },
        {
          "indexed": false,
          "internalType": "uint256",
          "name": "tokenId",
          "type": "uint256"
        },
        {
          "indexed": false,
          "internalType": "uint256",
          "name": "price",
          "type": "uint256"
        },
        {
          "indexed": false,
          "internalType": "address",
          "name": "buyer",
          "type": "address"
        }
      ],
      "name": "TicketSold",
      "type": "event"
    },
    {
      "inputs": [
        {
          "internalType": "address",
          "name": "ticketContract",
          "type": "address"
        },
        {
          "internalType": "uint256",
          "name": "tokenId",
          "type": "uint256"
        }
      ],
      "name": "buyResale",
      "outputs": [],
      "stateMutability": "payable",
      "type": "function"
    },
    {
      "inputs": [
        {
          "internalType": "address",
          "name": "ticketContract",
          "type": "address"
        },
        {
          "internalType": "uint256",
          "name": "tokenId",
          "type": "uint256"
        }
      ],
      "name": "cancelListing",
      "outputs": [],
      "stateMutability": "nonpayable",
      "type": "function"
    },
    {
      "inputs": [
        {
          "internalType": "address",
          "name": "ticketContract",
          "type": "address"
        },
        {
          "internalType": "uint256",
          "name": "tokenId",
          "type": "uint256"
        },
        {
          "internalType": "uint256",
          "name": "price",
          "type": "uint256"
        }
      ],
      "name": "listTicket",
      "outputs": [],
      "stateMutability": "nonpayable",
      "type": "function"
    },
    {
      "inputs": [
        {
          "internalType": "address",
          "name": "",
          "type": "address"
        },
        {
          "internalType": "uint256",
          "name": "",
          "type": "uint256"
        }
      ],
      "name": "listings",
      "outputs": [
        {
          "internalType": "address",
          "name": "seller",
          "type": "address"
        },
        {
          "internalType": "uint256",
          "name": "price",
          "type": "uint256"
        },
        {
          "internalType": "bool",
          "name": "active",
          "type": "bool"
        }
      ],
      "stateMutability": "view",
      "type": "function"
    },
    {
      "inputs": [],
      "name": "platformWallet",
      "outputs": [
        {
          "internalType": "address payable",
          "name": "",
          "type": "address"
        }
      ],
      "stateMutability": "view",
      "type": "function"
    },
    {
      "inputs": [],
      "name": "resaleFeePercent",
      "outputs": [
        {
          "internalType": "uint256",
          "name": "",
          "type": "uint256"
        }
      ],
      "stateMutability": "view",
      "type": "function"
    }
  ],
  "bytecode": "0x6080604052600560015534801561001557600080fd5b506040516115cd3803806115cd83398181016040528101906100379190610150565b600073ffffffffffffffffffffffffffffffffffffffff168173ffffffffffffffffffffffffffffffffffffffff16036100a6576040517f08c379a000000000000000000000000000000000000000000000000000000000815260040161009d906101da565b60405180910390fd5b80600260006101000a81548173ffffffffffffffffffffffffffffffffffffffff021916908373ffffffffffffffffffffffffffffffffffffffff160217905550506101fa565b600080fd5b600073ffffffffffffffffffffffffffffffffffffffff82169050919050565b600061011d826100f2565b9050919050565b61012d81610112565b811461013857600080fd5b50565b60008151905061014a81610124565b92915050565b600060208284031215610166576101656100ed565b5b60006101748482850161013b565b91505092915050565b600082825260208201905092915050565b7f496e76616c69642077616c6c6574000000000000000000000000000000000000600082015250565b60006101c4600e8361017d565b91506101cf8261018e565b602082019050919050565b600060208201905081810360008301526101f3816101b7565b9050919050565b6113c4806102096000396000f3fe6080604052600436106100545760003560e01c806207df30146100595780631d66b15c14610098578063464c11aa146100c15780639242c1a8146100ec578063b2ddee0614610108578063fa2af9da14610131575b600080fd5b34801561006557600080fd5b50610080600480360381019061007b9190610bda565b61015c565b60405161008f93929190610c53565b60405180910390f35b3480156100a457600080fd5b506100bf60048036038101906100ba9190610c8a565b6101c0565b005b3480156100cd57600080fd5b506100d66105a8565b6040516100e39190610cdd565b60405180910390f35b61010660048036038101906101019190610bda565b6105ae565b005b34801561011457600080fd5b5061012f600480360381019061012a9190610bda565b610975565b005b34801561013d57600080fd5b50610146610b1b565b6040516101539190610d19565b60405180910390f35b6000602052816000526040600020602052806000526040600020600091509150508060000160009054906101000a900473ffffffffffffffffffffffffffffffffffffffff16908060010154908060020160009054906101000a900460ff16905083565b60008111610203576040517f08c379a00000000000000000000000000000000000000000000000000000000081526004016101fa90610d91565b60405180910390fd5b60008390503373ffffffffffffffffffffffffffffffffffffffff168173ffffffffffffffffffffffffffffffffffffffff16636352211e856040518263ffffffff1660e01b81526004016102589190610cdd565b602060405180830381865afa158015610275573d6000803e3d6000fd5b505050506040513d601f19601f820116820180604052508101906102999190610dc6565b73ffffffffffffffffffffffffffffffffffffffff16146102ef576040517f08c379a00000000000000000000000000000000000000000000000000000000081526004016102e690610e3f565b60405180910390fd5b3073ffffffffffffffffffffffffffffffffffffffff168173ffffffffffffffffffffffffffffffffffffffff1663081812fc856040518263ffffffff1660e01b815260040161033f9190610cdd565b602060405180830381865afa15801561035c573d6000803e3d6000fd5b505050506040513d601f19601f820116820180604052508101906103809190610dc6565b73ffffffffffffffffffffffffffffffffffffffff16148061041a57508073ffffffffffffffffffffffffffffffffffffffff1663e985e9c533306040518363ffffffff1660e01b81526004016103d8929190610e5f565b602060405180830381865afa1580156103f5573d6000803e3d6000fd5b505050506040513d601f19601f820116820180604052508101906104199190610eb4565b5b610459576040517f08c379a000000000000000000000000000000000000000000000000000000000815260040161045090610f2d565b60405180910390fd5b60405180606001604052803373ffffffffffffffffffffffffffffffffffffffff168152602001838152602001600115158152506000808673ffffffffffffffffffffffffffffffffffffffff1673ffffffffffffffffffffffffffffffffffffffff168152602001908152602001600020600085815260200190815260200160002060008201518160000160006101000a81548173ffffffffffffffffffffffffffffffffffffffff021916908373ffffffffffffffffffffffffffffffffffffffff1602179055506020820151816001015560408201518160020160006101000a81548160ff0219169083151502179055509050508373ffffffffffffffffffffffffffffffffffffffff167f8eb7f103cc796712c31d344f1e05d5b095b445d2b7ac20e98c7cf75d9fc5a20784843360405161059a93929190610f4d565b60405180910390a250505050565b60015481565b60008060008473ffffffffffffffffffffffffffffffffffffffff1673ffffffffffffffffffffffffffffffffffffffff168152602001908152602001600020600083815260200190815260200160002090508060020160009054906101000a900460ff16610652576040517f08c379a000000000000000000000000000000000000000000000000000000000815260040161064990610fd0565b60405180910390fd5b80600101543414610698576040517f08c379a000000000000000000000000000000000000000000000000000000000815260040161068f9061103c565b60405180910390fd5b60008160020160006101000a81548160ff021916908315150217905550600083905060006064600154346106cc919061108b565b6106d691906110fc565b9050600081346106e6919061112d565b905060008460000160009054906101000a900473ffffffffffffffffffffffffffffffffffffffff1673ffffffffffffffffffffffffffffffffffffffff168260405161073290611192565b60006040518083038185875af1925050503d806000811461076f576040519150601f19603f3d011682016040523d82523d6000602084013e610774565b606091505b50509050806107b8576040517f08c379a00000000000000000000000000000000000000000000000000000000081526004016107af906111f3565b60405180910390fd5b6000600260009054906101000a900473ffffffffffffffffffffffffffffffffffffffff1673ffffffffffffffffffffffffffffffffffffffff168460405161080090611192565b60006040518083038185875af1925050503d806000811461083d576040519150601f19603f3d011682016040523d82523d6000602084013e610842565b606091505b5050905080610886576040517f08c379a000000000000000000000000000000000000000000000000000000000815260040161087d9061125f565b60405180910390fd5b8473ffffffffffffffffffffffffffffffffffffffff166342842e0e8760000160009054906101000a900473ffffffffffffffffffffffffffffffffffffffff16338a6040518463ffffffff1660e01b81526004016108e79392919061127f565b600060405180830381600087803b15801561090157600080fd5b505af1158015610915573d6000803e3d6000fd5b505050508773ffffffffffffffffffffffffffffffffffffffff167fa2d6980a10fd8f8af4526c51cfa03be8063b082833db6c6c20eeee802ef39fb288343360405161096393929190610f4d565b60405180910390a25050505050505050565b60008060008473ffffffffffffffffffffffffffffffffffffffff1673ffffffffffffffffffffffffffffffffffffffff168152602001908152602001600020600083815260200190815260200160002090503373ffffffffffffffffffffffffffffffffffffffff168160000160009054906101000a900473ffffffffffffffffffffffffffffffffffffffff1673ffffffffffffffffffffffffffffffffffffffff1614610a5a576040517f08c379a0000000000000000000000000000000000000000000000000000000008152600401610a5190611302565b60405180910390fd5b8060020160009054906101000a900460ff16610aab576040517f08c379a0000000000000000000000000000000000000000000000000000000008152600401610aa29061136e565b60405180910390fd5b60008160020160006101000a81548160ff0219169083151502179055508273ffffffffffffffffffffffffffffffffffffffff167f93ec4766fcd2d9dfdceab8f2e13ba0d9d826645cf03167fdb92b3b7359b5248c83604051610b0e9190610cdd565b60405180910390a2505050565b600260009054906101000a900473ffffffffffffffffffffffffffffffffffffffff1681565b600080fd5b600073ffffffffffffffffffffffffffffffffffffffff82169050919050565b6000610b7182610b46565b9050919050565b610b8181610b66565b8114610b8c57600080fd5b50565b600081359050610b9e81610b78565b92915050565b6000819050919050565b610bb781610ba4565b8114610bc257600080fd5b50565b600081359050610bd481610bae565b92915050565b60008060408385031215610bf157610bf0610b41565b5b6000610bff85828601610b8f565b9250506020610c1085828601610bc5565b9150509250929050565b610c2381610b66565b82525050565b610c3281610ba4565b82525050565b60008115159050919050565b610c4d81610c38565b82525050565b6000606082019050610c686000830186610c1a565b610c756020830185610c29565b610c826040830184610c44565b949350505050565b600080600060608486031215610ca357610ca2610b41565b5b6000610cb186828701610b8f565b9350506020610cc286828701610bc5565b9250506040610cd386828701610bc5565b9150509250925092565b6000602082019050610cf26000830184610c29565b92915050565b6000610d0382610b46565b9050919050565b610d1381610cf8565b82525050565b6000602082019050610d2e6000830184610d0a565b92915050565b600082825260208201905092915050565b7f496e76616c696420707269636500000000000000000000000000000000000000600082015250565b6000610d7b600d83610d34565b9150610d8682610d45565b602082019050919050565b60006020820190508181036000830152610daa81610d6e565b9050919050565b600081519050610dc081610b78565b92915050565b600060208284031215610ddc57610ddb610b41565b5b6000610dea84828501610db1565b91505092915050565b7f4e6f74207469636b6574206f776e657200000000000000000000000000000000600082015250565b6000610e29601083610d34565b9150610e3482610df3565b602082019050919050565b60006020820190508181036000830152610e5881610e1c565b9050919050565b6000604082019050610e746000830185610c1a565b610e816020830184610c1a565b9392505050565b610e9181610c38565b8114610e9c57600080fd5b50565b600081519050610eae81610e88565b92915050565b600060208284031215610eca57610ec9610b41565b5b6000610ed884828501610e9f565b91505092915050565b7f4d61726b6574706c616365206e6f7420617070726f7665640000000000000000600082015250565b6000610f17601883610d34565b9150610f2282610ee1565b602082019050919050565b60006020820190508181036000830152610f4681610f0a565b9050919050565b6000606082019050610f626000830186610c29565b610f6f6020830185610c29565b610f7c6040830184610c1a565b949350505050565b7f4e6f74206c697374656400000000000000000000000000000000000000000000600082015250565b6000610fba600a83610d34565b9150610fc582610f84565b602082019050919050565b60006020820190508181036000830152610fe981610fad565b9050919050565b7f496e636f72726563742070726963650000000000000000000000000000000000600082015250565b6000611026600f83610d34565b915061103182610ff0565b602082019050919050565b6000602082019050818103600083015261105581611019565b9050919050565b7f4e487b7100000000000000000000000000000000000000000000000000000000600052601160045260246000fd5b600061109682610ba4565b91506110a183610ba4565b92508282026110af81610ba4565b915082820484148315176110c6576110c561105c565b5b5092915050565b7f4e487b7100000000000000000000000000000000000000000000000000000000600052601260045260246000fd5b600061110782610ba4565b915061111283610ba4565b925082611122576111216110cd565b5b828204905092915050565b600061113882610ba4565b915061114383610ba4565b925082820390508181111561115b5761115a61105c565b5b92915050565b600081905092915050565b50565b600061117c600083611161565b91506111878261116c565b600082019050919050565b600061119d8261116f565b9150819050919050565b7f53656c6c6572207061796d656e74206661696c65640000000000000000000000600082015250565b60006111dd601583610d34565b91506111e8826111a7565b602082019050919050565b6000602082019050818103600083015261120c816111d0565b9050919050565b7f506c6174666f726d207061796d656e74206661696c6564000000000000000000600082015250565b6000611249601783610d34565b915061125482611213565b602082019050919050565b600060208201905081810360008301526112788161123c565b9050919050565b60006060820190506112946000830186610c1a565b6112a16020830185610c1a565b6112ae6040830184610c29565b949350505050565b7f4e6f742073656c6c657200000000000000000000000000000000000000000000600082015250565b60006112ec600a83610d34565b91506112f7826112b6565b602082019050919050565b6000602082019050818103600083015261131b816112df565b9050919050565b7f4e6f742061637469766500000000000000000000000000000000000000000000600082015250565b6000611358600a83610d34565b915061136382611322565b602082019050919050565b600060208201905081810360008301526113878161134b565b905091905056fea26469706673582212205fdab75d63242983cd13ecb6013c3501c225003e198041aad4798a4d6ef2533f64736f6c634300081c0033",
  "linkReferences": {},
  "deployedLinkReferences": {}
}