{
  "_format": "hh3-artifact-1",
  "contractName": "TicketNFT",
  "sourceName": "contracts/TicketNFT.sol",
  "abi": [
    {
      "inputs": [
        {
          "internalType": "string",
          "name": "name",
          "type": "string"
        },
        {
          "internalType": "string",
          "name": "symbol",
          "type": "string"
        }
      ],
      "stateMutability": "nonpayable",
      "type": "constructor"
    },
    {
      "inputs": [
        {
          "internalType": "address",
          "name": "sender",
          "type": "address"
        },
        {
          "internalType": "uint256",
          "name": "tokenId",
          "type": "uint256"
        },
        {
          "internalType": "address",
          "name": "owner",
          "type": "address"
        }
      ],
      "name": "ERC721IncorrectOwner",
      "type": "error"
    },
    {
      "inputs": [
        {
          "internalType": "address",
          "name": "operator",
          "type": "address"
        },
        {
          "internalType": "uint256",
          "name": "tokenId",
          "type": "uint256"
        }
      ],
      "name": "ERC721InsufficientApproval",
      "type": "error"
    },
    {
      "inputs": [
        {
          "internalType": "address",
          "name": "approver",
          "type": "address"
        }
      ],
      "name": "ERC721InvalidApprover",
      "type": "error"
    },
    {
      "inputs": [
        {
          "internalType": "address",
          "name": "operator",
          "type": "address"
        }
      ],
      "name": "ERC721InvalidOperator",
      "type": "error"
    },
    {
      "inputs": [
        {
          "internalType": "address",
          "name": "owner",
          "type": "address"
        }
      ],
      "name": "ERC721InvalidOwner",
      "type": "error"
    },
    {
      "inputs": [
        {
          "internalType": "address",
          "name": "receiver",
          "type": "address"
        }
      ],
      "name": "ERC721InvalidReceiver",
      "type": "error"
    },
    {
      "inputs": [
        {
          "internalType": "address",
          "name": "sender",
          "type": "address"
        }
      ],
      "name": "ERC721InvalidSender",
      "type": "error"
    },
    {
      "inputs": [
        {
          "internalType": "uint256",
          "name": "tokenId",
          "type": "uint256"
        }
      ],
      "name": "ERC721NonexistentToken",
      "type": "error"
    },
    {
      "inputs": [
        {
          "internalType": "address",
          "name": "owner",
          "type": "address"
        }
      ],
      "name": "OwnableInvalidOwner",
      "type": "error"
    },
    {
      "inputs": [
        {
          "internalType": "address",
          "name": "account",
          "type": "address"
        }
      ],
      "name": "OwnableUnauthorizedAccount",
      "type": "error"
    },
    {
      "anonymous": false,
      "inputs": [
        {
          "indexed": true,
          "internalType": "address",
          "name": "owner",
          "type": "address"
        },
        {
          "indexed": true,
          "internalType": "address",
          "name": "approved",
          "type": "address"
        },
        {
          "indexed": true,
          "internalType": "uint256",
          "name": "tokenId",
          "type": "uint256"
        }
      ],
      "name": "Approval",
      "type": "event"
    },
    {
      "anonymous": false,
      "inputs": [
        {
          "indexed": true,
          "internalType": "address",
          "name": "owner",
          "type": "address"
        },
        {
          "indexed": true,
          "internalType": "address",
          "name": "operator",
          "type": "address"
        },
        {
          "indexed": false,
          "internalType": "bool",
          "name": "approved",
          "type": "bool"
        }
      ],
      "name": "ApprovalForAll",
      "type": "event"
    },
    {
      "anonymous": false,
      "inputs": [
        {
          "indexed": false,
          "internalType": "uint256",
          "name": "_fromTokenId",
          "type": "uint256"
        },
        {
          "indexed": false,
          "internalType": "uint256",
          "name": "_toTokenId",
          "type": "uint256"
        }
      ],
      "name": "BatchMetadataUpdate",
      "type": "event"
    },
    {
      "anonymous": false,
      "inputs": [
        {
          "indexed": false,
          "internalType": "uint256",
          "name": "_tokenId",
          "type": "uint256"
        }
      ],
      "name": "MetadataUpdate",
      "type": "event"
    },
    {
      "anonymous": false,
      "inputs": [
        {
          "indexed": true,
          "internalType": "address",
          "name": "previousOwner",
          "type": "address"
        },
        {
          "indexed": true,
          "internalType": "address",
          "name": "newOwner",
          "type": "address"
        }
      ],
      "name": "OwnershipTransferred",
      "type": "event"
    },
    {
      "anonymous": false,
      "inputs": [
        {
          "indexed": true,
          "internalType": "address",
          "name": "from",
          "type": "address"
        },
        {
          "indexed": true,
          "internalType": "address",
          "name": "to",
          "type": "address"
        },
        {
          "indexed": true,
          "internalType": "uint256",
          "name": "tokenId",
          "type": "uint256"
        }
      ],
      "name": "Transfer",
      "type": "event"
    },
    {
      "inputs": [
        {
          "internalType": "address",
          "name": "to",
          "type": "address"
        },
        {
          "internalType": "uint256",
          "name": "tokenId",
          "type": "uint256"
        }
      ],
      "name": "approve",
      "outputs": [],
      "stateMutability": "nonpayable",
      "type": "function"
    },
    {
      "inputs": [
        {
          "internalType": "address",
          "name": "owner",
          "type": "address"
        }
      ],
      "name": "balanceOf",
      "outputs": [
        {
          "internalType": "uint256",
          "name": "",
          "type": "uint256"
        }
      ],
      "stateMutability": "view",
      "type": "function"
    },
    {
      "inputs": [
        {
          "internalType": "uint256",
          "name": "tokenId",
          "type": "uint256"
        }
      ],
      "name": "getApproved",
      "outputs": [
        {
          "internalType": "address",
          "name": "",
          "type": "address"
        }
      ],
      "stateMutability": "view",
      "type": "function"
    },
    {
      "inputs": [
        {
          "internalType": "address",
          "name": "owner",
          "type": "address"
        },
        {
          "internalType": "address",
          "name": "operator",
          "type": "address"
        }
      ],
      "name": "isApprovedForAll",
      "outputs": [
        {
          "internalType": "bool",
          "name": "",
          "type": "bool"
        }
      ],
      "stateMutability": "view",
      "type": "function"
    },
    {
      "inputs": [
        {
          "internalType": "address",
          "name": "to",
          "type": "address"
        },
        {
          "internalType": "string",
          "name": "tokenURI",
          "type": "string"
        }
      ],
      "name": "mintTicket",
      "outputs": [
        {
          "internalType": "uint256",
          "name": "",
          "type": "uint256"
        }
      ],
      "stateMutability": "nonpayable",
      "type": "function"
    },
    {
      "inputs": [],
      "name": "name",
      "outputs": [
        {
          "internalType": "string",
          "name": "",
          "type": "string"
        }
      ],
      "stateMutability": "view",
      "type": "function"
    },
    {
      "inputs": [],
      "name": "owner",
      "outputs": [
        {
          "internalType": "address",
          "name": "",
          "type": "address"
        }
      ],
      "stateMutability": "view",
      "type": "function"
    },
    {
      "inputs": [
        {
          "internalType": "uint256",
          "name": "tokenId",
          "type": "uint256"
        }
      ],
      "name": "ownerOf",
      "outputs": [
        {
          "internalType": "address",
          "name": "",
          "type": "address"
        }
      ],
      "stateMutability": "view",
      "type": "function"
    },
    {
      "inputs": [],
      "name": "renounceOwnership",
      "outputs": [],
      "stateMutability": "nonpayable",
      "type": "function"
    },
    {
      "inputs": [
        {
          "internalType": "address",
          "name": "from",
          "type": "address"
        },
        {
          "internalType": "address",
          "name": "to",
          "type": "address"
        },
        {
          "internalType": "uint256",
          "name": "tokenId",
          "type": "uint256"
        }
      ],
      "name": "safeTransferFrom",
      "outputs": [],
      "stateMutability": "nonpayable",
      "type": "function"
    },
    {
      "inputs": [
        {
          "internalType": "address",
          "name": "from",
          "type": "address"
        },
        {
          "internalType": "address",
          "name": "to",
          "type": "address"
        },
        {
          "internalType": "uint256",
          "name": "tokenId",
          "type": "uint256"
        },
        {
          "internalType": "bytes",
          "name": "data",
          "type": "bytes"
        }
      ],
      "name": "safeTransferFrom",
      "outputs": [],
      "stateMutability": "nonpayable",
      "type": "function"
    },
    {
      "inputs": [
        {
          "internalType": "address",
          "name": "operator",
          "type": "address"
        },
        {
          "internalType": "bool",
          "name": "approved",
          "type": "bool"
        }
      ],
      "name": "setApprovalForAll",
      "outputs": [],
      "stateMutability": "nonpayable",
      "type": "function"
    },
    {
      "inputs": [
        {
          "internalType": "bytes4",
          "name": "interfaceId",
          "type": "bytes4"
        }
      ],
      "name": "supportsInterface",
      "outputs": [
        {
          "internalType": "bool",
          "name": "",
          "type": "bool"
        }
      ],
      "stateMutability": "view",
      "type": "function"
    },
    {
      "inputs": [],
      "name": "symbol",
      "outputs": [
        {
          "internalType": "string",
          "name": "",
          "type": "string"
        }
      ],
      "stateMutability": "view",
      "type": "function"
    },
    {
      "inputs": [
        {
          "internalType": "uint256",
          "name": "tokenId",
          "type": "uint256"
        }
      ],
      "name": "tokenURI",
      "outputs": [
        {
          "internalType": "string",
          "name": "",
          "type": "string"
        }
      ],
      "stateMutability": "view",
      "type": "function"
    },
    {
      "inputs": [
        {
          "internalType": "address",
          "name": "from",
          "type": "address"
        },
        {
          "internalType": "address",
          "name": "to",
          "type": "address"
        },
        {
          "internalType": "uint256",
          "name": "tokenId",
          "type": "uint256"
        }
      ],
      "name": "transferFrom",
      "outputs": [],
      "stateMutability": "nonpayable",
      "type": "function"
    },
    {
      "inputs": [
        {
          "internalType": "address",
          "name": "newOwner",
          "type": "address"
        }
      ],
      "name": "transferOwnership",
      "outputs": [],
      "stateMutability": "nonpayable",
      "type": "function"
    }
  ],
  "bytecode": "0x608060405234801561000f575f5ffd5b50604051612bea380380612bea833981810160405281019061003191906102ec565b338282815f90816100429190610572565b5080600190816100529190610572565b5050505f73ffffffffffffffffffffffffffffffffffffffff168173ffffffffffffffffffffffffffffffffffffffff16036100c5575f6040517f1e4fbdf70000000000000000000000000000000000000000000000000000000081526004016100bc9190610680565b60405180910390fd5b6100d4816100dc60201b60201c565b505050610699565b5f60075f9054906101000a900473ffffffffffffffffffffffffffffffffffffffff1690508160075f6101000a81548173ffffffffffffffffffffffffffffffffffffffff021916908373ffffffffffffffffffffffffffffffffffffffff1602179055508173ffffffffffffffffffffffffffffffffffffffff168173ffffffffffffffffffffffffffffffffffffffff167f8be0079c531659141344cd1fd0a4f28419497f9722a3daafe3b4186f6b6457e060405160405180910390a35050565b5f604051905090565b5f5ffd5b5f5ffd5b5f5ffd5b5f5ffd5b5f601f19601f8301169050919050565b7f4e487b71000000000000000000000000000000000000000000000000000000005f52604160045260245ffd5b6101fe826101b8565b810181811067ffffffffffffffff8211171561021d5761021c6101c8565b5b80604052505050565b5f61022f61019f565b905061023b82826101f5565b919050565b5f67ffffffffffffffff82111561025a576102596101c8565b5b610263826101b8565b9050602081019050919050565b8281835e5f83830152505050565b5f61029061028b84610240565b610226565b9050828152602081018484840111156102ac576102ab6101b4565b5b6102b7848285610270565b509392505050565b5f82601f8301126102d3576102d26101b0565b5b81516102e384826020860161027e565b91505092915050565b5f5f60408385031215610302576103016101a8565b5b5f83015167ffffffffffffffff81111561031f5761031e6101ac565b5b61032b858286016102bf565b925050602083015167ffffffffffffffff81111561034c5761034b6101ac565b5b610358858286016102bf565b9150509250929050565b5f81519050919050565b7f4e487b71000000000000000000000000000000000000000000000000000000005f52602260045260245ffd5b5f60028204905060018216806103b057607f821691505b6020821081036103c3576103c261036c565b5b50919050565b5f819050815f5260205f209050919050565b5f6020601f8301049050919050565b5f82821b905092915050565b5f600883026104257fffffffffffffffffffffffffffffffffffffffffffffffffffffffffffffffff826103ea565b61042f86836103ea565b95508019841693508086168417925050509392505050565b5f819050919050565b5f819050919050565b5f61047361046e61046984610447565b610450565b610447565b9050919050565b5f819050919050565b61048c83610459565b6104a06104988261047a565b8484546103f6565b825550505050565b5f5f905090565b6104b76104a8565b6104c2818484610483565b505050565b5b818110156104e5576104da5f826104af565b6001810190506104c8565b5050565b601f82111561052a576104fb816103c9565b610504846103db565b81016020851015610513578190505b61052761051f856103db565b8301826104c7565b50505b505050565b5f82821c905092915050565b5f61054a5f198460080261052f565b1980831691505092915050565b5f610562838361053b565b9150826002028217905092915050565b61057b82610362565b67ffffffffffffffff811115610594576105936101c8565b5b61059e8254610399565b6105a98282856104e9565b5f60209050601f8311600181146105da575f84156105c8578287015190505b6105d28582610557565b865550610639565b601f1984166105e8866103c9565b5f5b8281101561060f578489015182556001820191506020850194506020810190506105ea565b8683101561062c5784890151610628601f89168261053b565b8355505b6001600288020188555050505b505050505050565b5f73ffffffffffffffffffffffffffffffffffffffff82169050919050565b5f61066a82610641565b9050919050565b61067a81610660565b82525050565b5f6020820190506106935f830184610671565b92915050565b612544806106a65f395ff3fe608060405234801561000f575f5ffd5b5060043610610109575f3560e01c806370a08231116100a0578063a22cb4651161006f578063a22cb465146102b5578063b88d4fde146102d1578063c87b56dd146102ed578063e985e9c51461031d578063f2fde38b1461034d57610109565b806370a082311461023f578063715018a61461026f5780638da5cb5b1461027957806395d89b411461029757610109565b806323b872dd116100dc57806323b872dd146101a757806342842e0e146101c35780635388842c146101df5780636352211e1461020f57610109565b806301ffc9a71461010d57806306fdde031461013d578063081812fc1461015b578063095ea7b31461018b575b5f5ffd5b61012760048036038101906101229190611a28565b610369565b6040516101349190611a6d565b60405180910390f35b6101456103c9565b6040516101529190611af6565b60405180910390f35b61017560048036038101906101709190611b49565b610458565b6040516101829190611bb3565b60405180910390f35b6101a560048036038101906101a09190611bf6565b610473565b005b6101c160048036038101906101bc9190611c34565b610489565b005b6101dd60048036038101906101d89190611c34565b610588565b005b6101f960048036038101906101f49190611db0565b6105a7565b6040516102069190611e19565b60405180910390f35b61022960048036038101906102249190611b49565b6105ed565b6040516102369190611bb3565b60405180910390f35b61025960048036038101906102549190611e32565b6105fe565b6040516102669190611e19565b60405180910390f35b6102776106b4565b005b6102816106c7565b60405161028e9190611bb3565b60405180910390f35b61029f6106ef565b6040516102ac9190611af6565b60405180910390f35b6102cf60048036038101906102ca9190611e87565b61077f565b005b6102eb60048036038101906102e69190611f63565b610795565b005b61030760048036038101906103029190611b49565b6107ba565b6040516103149190611af6565b60405180910390f35b61033760048036038101906103329190611fe3565b6108c5565b6040516103449190611a6d565b60405180910390f35b61036760048036038101906103629190611e32565b610953565b005b5f634906490660e01b7bffffffffffffffffffffffffffffffffffffffffffffffffffffffff1916827bffffffffffffffffffffffffffffffffffffffffffffffffffffffff191614806103c257506103c1826109d7565b5b9050919050565b60605f80546103d79061204e565b80601f01602080910402602001604051908101604052809291908181526020018280546104039061204e565b801561044e5780601f106104255761010080835404028352916020019161044e565b820191905f5260205f20905b81548152906001019060200180831161043157829003601f168201915b5050505050905090565b5f61046282610ab8565b5061046c82610b3e565b9050919050565b6104858282610480610b77565b610b7e565b5050565b5f73ffffffffffffffffffffffffffffffffffffffff168273ffffffffffffffffffffffffffffffffffffffff16036104f9575f6040517f64a0ae920000000000000000000000000000000000000000000000000000000081526004016104f09190611bb3565b60405180910390fd5b5f61050c8383610507610b77565b610b90565b90508373ffffffffffffffffffffffffffffffffffffffff168173ffffffffffffffffffffffffffffffffffffffff1614610582578382826040517f64283d7b0000000000000000000000000000000000000000000000000000000081526004016105799392919061207e565b60405180910390fd5b50505050565b6105a283838360405180602001604052805f815250610795565b505050565b5f6105b0610d9b565b600160085f8282546105c291906120e0565b925050819055505f60085490506105d98482610e22565b6105e38184610f15565b8091505092915050565b5f6105f782610ab8565b9050919050565b5f5f73ffffffffffffffffffffffffffffffffffffffff168273ffffffffffffffffffffffffffffffffffffffff160361066f575f6040517f89c62b640000000000000000000000000000000000000000000000000000000081526004016106669190611bb3565b60405180910390fd5b60035f8373ffffffffffffffffffffffffffffffffffffffff1673ffffffffffffffffffffffffffffffffffffffff1681526020019081526020015f20549050919050565b6106bc610d9b565b6106c55f610f6f565b565b5f60075f9054906101000a900473ffffffffffffffffffffffffffffffffffffffff16905090565b6060600180546106fe9061204e565b80601f016020809104026020016040519081016040528092919081815260200182805461072a9061204e565b80156107755780601f1061074c57610100808354040283529160200191610775565b820191905f5260205f20905b81548152906001019060200180831161075857829003601f168201915b5050505050905090565b61079161078a610b77565b8383611032565b5050565b6107a0848484610489565b6107b46107ab610b77565b8585858561119b565b50505050565b60606107c582610ab8565b505f60065f8481526020019081526020015f2080546107e39061204e565b80601f016020809104026020016040519081016040528092919081815260200182805461080f9061204e565b801561085a5780601f106108315761010080835404028352916020019161085a565b820191905f5260205f20905b81548152906001019060200180831161083d57829003601f168201915b505050505090505f61086a611347565b90505f81510361087e5781925050506108c0565b5f825111156108b257808260405160200161089a92919061214d565b604051602081830303815290604052925050506108c0565b6108bb8461135d565b925050505b919050565b5f60055f8473ffffffffffffffffffffffffffffffffffffffff1673ffffffffffffffffffffffffffffffffffffffff1681526020019081526020015f205f8373ffffffffffffffffffffffffffffffffffffffff1673ffffffffffffffffffffffffffffffffffffffff1681526020019081526020015f205f9054906101000a900460ff16905092915050565b61095b610d9b565b5f73ffffffffffffffffffffffffffffffffffffffff168173ffffffffffffffffffffffffffffffffffffffff16036109cb575f6040517f1e4fbdf70000000000000000000000000000000000000000000000000000000081526004016109c29190611bb3565b60405180910390fd5b6109d481610f6f565b50565b5f7f80ac58cd000000000000000000000000000000000000000000000000000000007bffffffffffffffffffffffffffffffffffffffffffffffffffffffff1916827bffffffffffffffffffffffffffffffffffffffffffffffffffffffff19161480610aa157507f5b5e139f000000000000000000000000000000000000000000000000000000007bffffffffffffffffffffffffffffffffffffffffffffffffffffffff1916827bffffffffffffffffffffffffffffffffffffffffffffffffffffffff1916145b80610ab15750610ab0826113c3565b5b9050919050565b5f5f610ac38361142c565b90505f73ffffffffffffffffffffffffffffffffffffffff168173ffffffffffffffffffffffffffffffffffffffff1603610b3557826040517f7e273289000000000000000000000000000000000000000000000000000000008152600401610b2c9190611e19565b60405180910390fd5b80915050919050565b5f60045f8381526020019081526020015f205f9054906101000a900473ffffffffffffffffffffffffffffffffffffffff169050919050565b5f33905090565b610b8b8383836001611465565b505050565b5f5f610b9b8461142c565b90505f73ffffffffffffffffffffffffffffffffffffffff168373ffffffffffffffffffffffffffffffffffffffff1614610bdc57610bdb818486611624565b5b5f73ffffffffffffffffffffffffffffffffffffffff168173ffffffffffffffffffffffffffffffffffffffff1614610c6757610c1b5f855f5f611465565b600160035f8373ffffffffffffffffffffffffffffffffffffffff1673ffffffffffffffffffffffffffffffffffffffff1681526020019081526020015f205f82825403925050819055505b5f73ffffffffffffffffffffffffffffffffffffffff168573ffffffffffffffffffffffffffffffffffffffff1614610ce657600160035f8773ffffffffffffffffffffffffffffffffffffffff1673ffffffffffffffffffffffffffffffffffffffff1681526020019081526020015f205f82825401925050819055505b8460025f8681526020019081526020015f205f6101000a81548173ffffffffffffffffffffffffffffffffffffffff021916908373ffffffffffffffffffffffffffffffffffffffff160217905550838573ffffffffffffffffffffffffffffffffffffffff168273ffffffffffffffffffffffffffffffffffffffff167fddf252ad1be2c89b69c2b068fc378daa952ba7f163c4a11628f55a4df523b3ef60405160405180910390a4809150509392505050565b610da3610b77565b73ffffffffffffffffffffffffffffffffffffffff16610dc16106c7565b73ffffffffffffffffffffffffffffffffffffffff1614610e2057610de4610b77565b6040517f118cdaa7000000000000000000000000000000000000000000000000000000008152600401610e179190611bb3565b60405180910390fd5b565b5f73ffffffffffffffffffffffffffffffffffffffff168273ffffffffffffffffffffffffffffffffffffffff1603610e92575f6040517f64a0ae92000000000000000000000000000000000000000000000000000000008152600401610e899190611bb3565b60405180910390fd5b5f610e9e83835f610b90565b90505f73ffffffffffffffffffffffffffffffffffffffff168173ffffffffffffffffffffffffffffffffffffffff1614610f10575f6040517f73c6ac6e000000000000000000000000000000000000000000000000000000008152600401610f079190611bb3565b60405180910390fd5b505050565b8060065f8481526020019081526020015f209081610f339190612310565b507ff8e1a15aba9398e019f0b49df1a4fde98ee17ae345cb5f6b5e2c27f5033e8ce782604051610f639190611e19565b60405180910390a15050565b5f60075f9054906101000a900473ffffffffffffffffffffffffffffffffffffffff1690508160075f6101000a81548173ffffffffffffffffffffffffffffffffffffffff021916908373ffffffffffffffffffffffffffffffffffffffff1602179055508173ffffffffffffffffffffffffffffffffffffffff168173ffffffffffffffffffffffffffffffffffffffff167f8be0079c531659141344cd1fd0a4f28419497f9722a3daafe3b4186f6b6457e060405160405180910390a35050565b5f73ffffffffffffffffffffffffffffffffffffffff168273ffffffffffffffffffffffffffffffffffffffff16036110a257816040517f5b08ba180000000000000000000000000000000000000000000000000000000081526004016110999190611bb3565b60405180910390fd5b8060055f8573ffffffffffffffffffffffffffffffffffffffff1673ffffffffffffffffffffffffffffffffffffffff1681526020019081526020015f205f8473ffffffffffffffffffffffffffffffffffffffff1673ffffffffffffffffffffffffffffffffffffffff1681526020019081526020015f205f6101000a81548160ff0219169083151502179055508173ffffffffffffffffffffffffffffffffffffffff168373ffffffffffffffffffffffffffffffffffffffff167f17307eab39ab6107e8899845ad3d59bd9653f200f220920489ca2b5937696c318360405161118e9190611a6d565b60405180910390a3505050565b5f8373ffffffffffffffffffffffffffffffffffffffff163b1115611340578273ffffffffffffffffffffffffffffffffffffffff1663150b7a02868685856040518563ffffffff1660e01b81526004016111f99493929190612431565b6020604051808303815f875af192505050801561123457506040513d601f19601f82011682018060405250810190611231919061248f565b60015b6112b5573d805f8114611262576040519150601f19603f3d011682016040523d82523d5f602084013e611267565b606091505b505f8151036112ad57836040517f64a0ae920000000000000000000000000000000000000000000000000000000081526004016112a49190611bb3565b60405180910390fd5b805160208201fd5b63150b7a0260e01b7bffffffffffffffffffffffffffffffffffffffffffffffffffffffff1916817bffffffffffffffffffffffffffffffffffffffffffffffffffffffff19161461133e57836040517f64a0ae920000000000000000000000000000000000000000000000000000000081526004016113359190611bb3565b60405180910390fd5b505b5050505050565b606060405180602001604052805f815250905090565b606061136882610ab8565b505f611372611347565b90505f8151116113905760405180602001604052805f8152506113bb565b8061139a846116e7565b6040516020016113ab92919061214d565b6040516020818303038152906040525b915050919050565b5f7f01ffc9a7000000000000000000000000000000000000000000000000000000007bffffffffffffffffffffffffffffffffffffffffffffffffffffffff1916827bffffffffffffffffffffffffffffffffffffffffffffffffffffffff1916149050919050565b5f60025f8381526020019081526020015f205f9054906101000a900473ffffffffffffffffffffffffffffffffffffffff169050919050565b808061149d57505f73ffffffffffffffffffffffffffffffffffffffff168273ffffffffffffffffffffffffffffffffffffffff1614155b156115cf575f6114ac84610ab8565b90505f73ffffffffffffffffffffffffffffffffffffffff168373ffffffffffffffffffffffffffffffffffffffff161415801561151657508273ffffffffffffffffffffffffffffffffffffffff168173ffffffffffffffffffffffffffffffffffffffff1614155b8015611529575061152781846108c5565b155b1561156b57826040517fa9fbf51f0000000000000000000000000000000000000000000000000000000081526004016115629190611bb3565b60405180910390fd5b81156115cd57838573ffffffffffffffffffffffffffffffffffffffff168273ffffffffffffffffffffffffffffffffffffffff167f8c5be1e5ebec7d5bd14f71427d1e84f3dd0314c0f7b2291e5b200ac8c7c3b92560405160405180910390a45b505b8360045f8581526020019081526020015f205f6101000a81548173ffffffffffffffffffffffffffffffffffffffff021916908373ffffffffffffffffffffffffffffffffffffffff16021790555050505050565b61162f8383836117b1565b6116e2575f73ffffffffffffffffffffffffffffffffffffffff168373ffffffffffffffffffffffffffffffffffffffff16036116a357806040517f7e27328900000000000000000000000000000000000000000000000000000000815260040161169a9190611e19565b60405180910390fd5b81816040517f177e802f0000000000000000000000000000000000000000000000000000000081526004016116d99291906124ba565b60405180910390fd5b505050565b60605f60016116f584611871565b0190505f8167ffffffffffffffff81111561171357611712611c8c565b5b6040519080825280601f01601f1916602001820160405280156117455781602001600182028036833780820191505090505b5090505f82602083010190505b6001156117a6578080600190039150507f3031323334353637383961626364656600000000000000000000000000000000600a86061a8153600a858161179b5761179a6124e1565b5b0494505f8503611752575b819350505050919050565b5f5f73ffffffffffffffffffffffffffffffffffffffff168373ffffffffffffffffffffffffffffffffffffffff161415801561186857508273ffffffffffffffffffffffffffffffffffffffff168473ffffffffffffffffffffffffffffffffffffffff161480611829575061182884846108c5565b5b8061186757508273ffffffffffffffffffffffffffffffffffffffff1661184f83610b3e565b73ffffffffffffffffffffffffffffffffffffffff16145b5b90509392505050565b5f5f5f90507a184f03e93ff9f4daa797ed6e38ed64bf6a1f01000000000000000083106118cd577a184f03e93ff9f4daa797ed6e38ed64bf6a1f01000000000000000083816118c3576118c26124e1565b5b0492506040810190505b6d04ee2d6d415b85acef8100000000831061190a576d04ee2d6d415b85acef81000000008381611900576118ff6124e1565b5b0492506020810190505b662386f26fc10000831061193957662386f26fc10000838161192f5761192e6124e1565b5b0492506010810190505b6305f5e1008310611962576305f5e1008381611958576119576124e1565b5b0492506008810190505b612710831061198757612710838161197d5761197c6124e1565b5b0492506004810190505b606483106119aa57606483816119a05761199f6124e1565b5b0492506002810190505b600a83106119b9576001810190505b80915050919050565b5f604051905090565b5f5ffd5b5f5ffd5b5f7fffffffff0000000000000000000000000000000000000000000000000000000082169050919050565b611a07816119d3565b8114611a11575f5ffd5b50565b5f81359050611a22816119fe565b92915050565b5f60208284031215611a3d57611a3c6119cb565b5b5f611a4a84828501611a14565b91505092915050565b5f8115159050919050565b611a6781611a53565b82525050565b5f602082019050611a805f830184611a5e565b92915050565b5f81519050919050565b5f82825260208201905092915050565b8281835e5f83830152505050565b5f601f19601f8301169050919050565b5f611ac882611a86565b611ad28185611a90565b9350611ae2818560208601611aa0565b611aeb81611aae565b840191505092915050565b5f6020820190508181035f830152611b0e8184611abe565b905092915050565b5f819050919050565b611b2881611b16565b8114611b32575f5ffd5b50565b5f81359050611b4381611b1f565b92915050565b5f60208284031215611b5e57611b5d6119cb565b5b5f611b6b84828501611b35565b91505092915050565b5f73ffffffffffffffffffffffffffffffffffffffff82169050919050565b5f611b9d82611b74565b9050919050565b611bad81611b93565b82525050565b5f602082019050611bc65f830184611ba4565b92915050565b611bd581611b93565b8114611bdf575f5ffd5b50565b5f81359050611bf081611bcc565b92915050565b5f5f60408385031215611c0c57611c0b6119cb565b5b5f611c1985828601611be2565b9250506020611c2a85828601611b35565b9150509250929050565b5f5f5f60608486031215611c4b57611c4a6119cb565b5b5f611c5886828701611be2565b9350506020611c6986828701611be2565b9250506040611c7a86828701611b35565b9150509250925092565b5f5ffd5b5f5ffd5b7f4e487b71000000000000000000000000000000000000000000000000000000005f52604160045260245ffd5b611cc282611aae565b810181811067ffffffffffffffff82111715611ce157611ce0611c8c565b5b80604052505050565b5f611cf36119c2565b9050611cff8282611cb9565b919050565b5f67ffffffffffffffff821115611d1e57611d1d611c8c565b5b611d2782611aae565b9050602081019050919050565b828183375f83830152505050565b5f611d54611d4f84611d04565b611cea565b905082815260208101848484011115611d7057611d6f611c88565b5b611d7b848285611d34565b509392505050565b5f82601f830112611d9757611d96611c84565b5b8135611da7848260208601611d42565b91505092915050565b5f5f60408385031215611dc657611dc56119cb565b5b5f611dd385828601611be2565b925050602083013567ffffffffffffffff811115611df457611df36119cf565b5b611e0085828601611d83565b9150509250929050565b611e1381611b16565b82525050565b5f602082019050611e2c5f830184611e0a565b92915050565b5f60208284031215611e4757611e466119cb565b5b5f611e5484828501611be2565b91505092915050565b611e6681611a53565b8114611e70575f5ffd5b50565b5f81359050611e8181611e5d565b92915050565b5f5f60408385031215611e9d57611e9c6119cb565b5b5f611eaa85828601611be2565b9250506020611ebb85828601611e73565b9150509250929050565b5f67ffffffffffffffff821115611edf57611ede611c8c565b5b611ee882611aae565b9050602081019050919050565b5f611f07611f0284611ec5565b611cea565b905082815260208101848484011115611f2357611f22611c88565b5b611f2e848285611d34565b509392505050565b5f82601f830112611f4a57611f49611c84565b5b8135611f5a848260208601611ef5565b91505092915050565b5f5f5f5f60808587031215611f7b57611f7a6119cb565b5b5f611f8887828801611be2565b9450506020611f9987828801611be2565b9350506040611faa87828801611b35565b925050606085013567ffffffffffffffff811115611fcb57611fca6119cf565b5b611fd787828801611f36565b91505092959194509250565b5f5f60408385031215611ff957611ff86119cb565b5b5f61200685828601611be2565b925050602061201785828601611be2565b9150509250929050565b7f4e487b71000000000000000000000000000000000000000000000000000000005f52602260045260245ffd5b5f600282049050600182168061206557607f821691505b60208210810361207857612077612021565b5b50919050565b5f6060820190506120915f830186611ba4565b61209e6020830185611e0a565b6120ab6040830184611ba4565b949350505050565b7f4e487b71000000000000000000000000000000000000000000000000000000005f52601160045260245ffd5b5f6120ea82611b16565b91506120f583611b16565b925082820190508082111561210d5761210c6120b3565b5b92915050565b5f81905092915050565b5f61212782611a86565b6121318185612113565b9350612141818560208601611aa0565b80840191505092915050565b5f612158828561211d565b9150612164828461211d565b91508190509392505050565b5f819050815f5260205f209050919050565b5f6020601f8301049050919050565b5f82821b905092915050565b5f600883026121cc7fffffffffffffffffffffffffffffffffffffffffffffffffffffffffffffffff82612191565b6121d68683612191565b95508019841693508086168417925050509392505050565b5f819050919050565b5f61221161220c61220784611b16565b6121ee565b611b16565b9050919050565b5f819050919050565b61222a836121f7565b61223e61223682612218565b84845461219d565b825550505050565b5f5f905090565b612255612246565b612260818484612221565b505050565b5b81811015612283576122785f8261224d565b600181019050612266565b5050565b601f8211156122c85761229981612170565b6122a284612182565b810160208510156122b1578190505b6122c56122bd85612182565b830182612265565b50505b505050565b5f82821c905092915050565b5f6122e85f19846008026122cd565b1980831691505092915050565b5f61230083836122d9565b9150826002028217905092915050565b61231982611a86565b67ffffffffffffffff81111561233257612331611c8c565b5b61233c825461204e565b612347828285612287565b5f60209050601f831160018114612378575f8415612366578287015190505b61237085826122f5565b8655506123d7565b601f19841661238686612170565b5f5b828110156123ad57848901518255600182019150602085019450602081019050612388565b868310156123ca57848901516123c6601f8916826122d9565b8355505b6001600288020188555050505b505050505050565b5f81519050919050565b5f82825260208201905092915050565b5f612403826123df565b61240d81856123e9565b935061241d818560208601611aa0565b61242681611aae565b840191505092915050565b5f6080820190506124445f830187611ba4565b6124516020830186611ba4565b61245e6040830185611e0a565b818103606083015261247081846123f9565b905095945050505050565b5f81519050612489816119fe565b92915050565b5f602082840312156124a4576124a36119cb565b5b5f6124b18482850161247b565b91505092915050565b5f6040820190506124cd5f830185611ba4565b6124da6020830184611e0a565b9392505050565b7f4e487b71000000000000000000000000000000000000000000000000000000005f52601260045260245ffdfea26469706673582212201f4e3390343d4b1fce19e04cc0c4601d16116ffd9409f702ae70f79e3585b59164736f6c634300081c0033",
  "linkReferences": {},
  "deployedLinkReferences": {},
  "immutableReferences": {},
  "inputSourceName": "project/contracts/TicketNFT.sol",
  "buildInfoId": "solc-0_8_28-e9efae60228b1fb2c27911d7f8a344840918a309"
}