{
  "_format": "hh3-artifact-1",
  "contractName": "TicketFactory",
  "sourceName": "contracts/TicketFactory.sol",
  "abi": [
    {
      "inputs": [
        {
          "internalType": "address payable",
          "name": "_platformWallet",
          "type": "address"
        },
        {
          "internalType": "uint256",
          "name": "_platformFeePercentage",
          "type": "uint256"
        }
      ],
      "stateMutability": "nonpayable",
      "type": "constructor"
    },
    {
      "anonymous": false,
      "inputs": [
        {
          "indexed": true,
          "internalType": "address",
          "name": "artist",
          "type": "address"
        },
        {
          "indexed": false,
          "internalType": "address",
          "name": "ticketContract",
          "type": "address"
        }
      ],
      "name": "TicketContractCreated",
      "type": "event"
    },
    {
      "inputs": [
        {
          "internalType": "address",
          "name": "",
          "type": "address"
        },
        {
          "internalType": "uint256",
          "name": "",
          "type": "uint256"
        }
      ],
      "name": "artistToTickets",
      "outputs": [
        {
          "internalType": "address",
          "name": "",
          "type": "address"
        }
      ],
      "stateMutability": "view",
      "type": "function"
    },
    {
      "inputs": [
        {
          "internalType": "address",
          "name": "artistAddress",
          "type": "address"
        }
      ],
      "name": "createTicketContract",
      "outputs": [
        {
          "internalType": "address",
          "name": "",
          "type": "address"
        }
      ],
      "stateMutability": "nonpayable",
      "type": "function"
    },
    {
      "inputs": [
        {
          "internalType": "uint256",
          "name": "",
          "type": "uint256"
        }
      ],
      "name": "deployedTickets",
      "outputs": [
        {
          "internalType": "address",
          "name": "",
          "type": "address"
        }
      ],
      "stateMutability": "view",
      "type": "function"
    },
    {
      "inputs": [],
      "name": "getAllTickets",
      "outputs": [
        {
          "internalType": "address[]",
          "name": "",
          "type": "address[]"
        }
      ],
      "stateMutability": "view",
      "type": "function"
    },
    {
      "inputs": [
        {
          "internalType": "address",
          "name": "artist",
          "type": "address"
        }
      ],
      "name": "getArtistTickets",
      "outputs": [
        {
          "internalType": "address[]",
          "name": "",
          "type": "address[]"
        }
      ],
      "stateMutability": "view",
      "type": "function"
    },
    {
      "inputs": [],
      "name": "platformFeePercentage",
      "outputs": [
        {
          "internalType": "uint256",
          "name": "",
          "type": "uint256"
        }
      ],
      "stateMutability": "view",
      "type": "function"
    },
    {
      "inputs": [],
      "name": "platformWallet",
      "outputs": [
        {
          "internalType": "address payable",
          "name": "",
          "type": "address"
        }
      ],
      "stateMutability": "view",
      "type": "function"
    },
    {
      "inputs": [
        {
          "internalType": "uint256",
          "name": "newFeePercentage",
          "type": "uint256"
        }
      ],
      "name": "updatePlatformFee",
      "outputs": [],
      "stateMutability": "nonpayable",
      "type": "function"
    },
    {
      "inputs": [
        {
          "internalType": "address payable",
          "name": "newWallet",
          "type": "address"
        }
      ],
      "name": "updatePlatformWallet",
      "outputs": [],
      "stateMutability": "nonpayable",
      "type": "function"
    }
  ],
  "bytecode": "0x608060405234801561000f575f5ffd5b506040516145a63803806145a683398181016040528101906100319190610153565b6064811115610075576040517f08c379a000000000000000000000000000000000000000000000000000000000815260040161006c906101eb565b60405180910390fd5b815f5f6101000a81548173ffffffffffffffffffffffffffffffffffffffff021916908373ffffffffffffffffffffffffffffffffffffffff160217905550806001819055505050610209565b5f5ffd5b5f73ffffffffffffffffffffffffffffffffffffffff82169050919050565b5f6100ef826100c6565b9050919050565b6100ff816100e5565b8114610109575f5ffd5b50565b5f8151905061011a816100f6565b92915050565b5f819050919050565b61013281610120565b811461013c575f5ffd5b50565b5f8151905061014d81610129565b92915050565b5f5f60408385031215610169576101686100c2565b5b5f6101768582860161010c565b92505060206101878582860161013f565b9150509250929050565b5f82825260208201905092915050565b7f4665652063616e6e6f74206578636565642031303025000000000000000000005f82015250565b5f6101d5601683610191565b91506101e0826101a1565b602082019050919050565b5f6020820190508181035f830152610202816101c9565b9050919050565b614390806102165f395ff3fe608060405234801561000f575f5ffd5b5060043610610091575f3560e01c8063aa0b598811610064578063aa0b598814610143578063ada4ef301461015f578063cdd78cfc1461017b578063d83e7bfa14610199578063fa2af9da146101c957610091565b806303e96fe31461009557806341e7dbca146100b35780636be37193146100e357806390cffe9d14610113575b5f5ffd5b61009d6101e7565b6040516100aa91906108f1565b60405180910390f35b6100cd60048036038101906100c89190610972565b610272565b6040516100da91906109bf565b60405180910390f35b6100fd60048036038101906100f891906109d8565b6102ba565b60405161010a91906108f1565b60405180910390f35b61012d600480360381019061012891906109d8565b610382565b60405161013a91906109bf565b60405180910390f35b61015d60048036038101906101589190610a03565b61057e565b005b61017960048036038101906101749190610a69565b61065a565b005b610183610798565b6040516101909190610aa3565b60405180910390f35b6101b360048036038101906101ae9190610a03565b61079e565b6040516101c091906109bf565b60405180910390f35b6101d16107d9565b6040516101de9190610acb565b60405180910390f35b6060600280548060200260200160405190810160405280929190818152602001828054801561026857602002820191905f5260205f20905b815f9054906101000a900473ffffffffffffffffffffffffffffffffffffffff1673ffffffffffffffffffffffffffffffffffffffff168152602001906001019080831161021f575b5050505050905090565b6003602052815f5260405f20818154811061028b575f80fd5b905f5260205f20015f915091509054906101000a900473ffffffffffffffffffffffffffffffffffffffff1681565b606060035f8373ffffffffffffffffffffffffffffffffffffffff1673ffffffffffffffffffffffffffffffffffffffff1681526020019081526020015f2080548060200260200160405190810160405280929190818152602001828054801561037657602002820191905f5260205f20905b815f9054906101000a900473ffffffffffffffffffffffffffffffffffffffff1673ffffffffffffffffffffffffffffffffffffffff168152602001906001019080831161032d575b50505050509050919050565b5f5f73ffffffffffffffffffffffffffffffffffffffff168273ffffffffffffffffffffffffffffffffffffffff16036103f1576040517f08c379a00000000000000000000000000000000000000000000000000000000081526004016103e890610b3e565b60405180910390fd5b5f8230604051610400906107fd565b61040b929190610b5c565b604051809103905ff080158015610424573d5f5f3e3d5ffd5b5090505f819050600281908060018154018082558091505060019003905f5260205f20015f9091909190916101000a81548173ffffffffffffffffffffffffffffffffffffffff021916908373ffffffffffffffffffffffffffffffffffffffff16021790555060035f8573ffffffffffffffffffffffffffffffffffffffff1673ffffffffffffffffffffffffffffffffffffffff1681526020019081526020015f2081908060018154018082558091505060019003905f5260205f20015f9091909190916101000a81548173ffffffffffffffffffffffffffffffffffffffff021916908373ffffffffffffffffffffffffffffffffffffffff1602179055508373ffffffffffffffffffffffffffffffffffffffff167fad0b48e6f98c9dc5814e640a253e1f0727910cf30a65a919240cc1673d7351668260405161056c91906109bf565b60405180910390a28092505050919050565b5f5f9054906101000a900473ffffffffffffffffffffffffffffffffffffffff1673ffffffffffffffffffffffffffffffffffffffff163373ffffffffffffffffffffffffffffffffffffffff161461060c576040517f08c379a000000000000000000000000000000000000000000000000000000000815260040161060390610bcd565b60405180910390fd5b6064811115610650576040517f08c379a000000000000000000000000000000000000000000000000000000000815260040161064790610c35565b60405180910390fd5b8060018190555050565b5f5f9054906101000a900473ffffffffffffffffffffffffffffffffffffffff1673ffffffffffffffffffffffffffffffffffffffff163373ffffffffffffffffffffffffffffffffffffffff16146106e8576040517f08c379a00000000000000000000000000000000000000000000000000000000081526004016106df90610bcd565b60405180910390fd5b5f73ffffffffffffffffffffffffffffffffffffffff168173ffffffffffffffffffffffffffffffffffffffff1603610756576040517f08c379a000000000000000000000000000000000000000000000000000000000815260040161074d90610c9d565b60405180910390fd5b805f5f6101000a81548173ffffffffffffffffffffffffffffffffffffffff021916908373ffffffffffffffffffffffffffffffffffffffff16021790555050565b60015481565b600281815481106107ad575f80fd5b905f5260205f20015f915054906101000a900473ffffffffffffffffffffffffffffffffffffffff1681565b5f5f9054906101000a900473ffffffffffffffffffffffffffffffffffffffff1681565b61369f80610cbc83390190565b5f81519050919050565b5f82825260208201905092915050565b5f819050602082019050919050565b5f73ffffffffffffffffffffffffffffffffffffffff82169050919050565b5f61085c82610833565b9050919050565b61086c81610852565b82525050565b5f61087d8383610863565b60208301905092915050565b5f602082019050919050565b5f61089f8261080a565b6108a98185610814565b93506108b483610824565b805f5b838110156108e45781516108cb8882610872565b97506108d683610889565b9250506001810190506108b7565b5085935050505092915050565b5f6020820190508181035f8301526109098184610895565b905092915050565b5f5ffd5b61091e81610852565b8114610928575f5ffd5b50565b5f8135905061093981610915565b92915050565b5f819050919050565b6109518161093f565b811461095b575f5ffd5b50565b5f8135905061096c81610948565b92915050565b5f5f6040838503121561098857610987610911565b5b5f6109958582860161092b565b92505060206109a68582860161095e565b9150509250929050565b6109b981610852565b82525050565b5f6020820190506109d25f8301846109b0565b92915050565b5f602082840312156109ed576109ec610911565b5b5f6109fa8482850161092b565b91505092915050565b5f60208284031215610a1857610a17610911565b5b5f610a258482850161095e565b91505092915050565b5f610a3882610833565b9050919050565b610a4881610a2e565b8114610a52575f5ffd5b50565b5f81359050610a6381610a3f565b92915050565b5f60208284031215610a7e57610a7d610911565b5b5f610a8b84828501610a55565b91505092915050565b610a9d8161093f565b82525050565b5f602082019050610ab65f830184610a94565b92915050565b610ac581610a2e565b82525050565b5f602082019050610ade5f830184610abc565b92915050565b5f82825260208201905092915050565b7f496e76616c6964206172746973742061646472657373000000000000000000005f82015250565b5f610b28601683610ae4565b9150610b3382610af4565b602082019050919050565b5f6020820190508181035f830152610b5581610b1c565b9050919050565b5f604082019050610b6f5f8301856109b0565b610b7c60208301846109b0565b9392505050565b7f4f6e6c7920706c6174666f726d2063616e2075706461746500000000000000005f82015250565b5f610bb7601883610ae4565b9150610bc282610b83565b602082019050919050565b5f6020820190508181035f830152610be481610bab565b9050919050565b7f4665652063616e6e6f74206578636565642031303025000000000000000000005f82015250565b5f610c1f601683610ae4565b9150610c2a82610beb565b602082019050919050565b5f6020820190508181035f830152610c4c81610c13565b9050919050565b7f496e76616c69642077616c6c65742061646472657373000000000000000000005f82015250565b5f610c87601683610ae4565b9150610c9282610c53565b602082019050919050565b5f6020820190508181035f830152610cb481610c7b565b905091905056fe60a060405234801561000f575f5ffd5b5060405161369f38038061369f8339818101604052810190610031919061029b565b816040518060400160405280600d81526020017f417274697374205469636b6574000000000000000000000000000000000000008152506040518060400160405280600381526020017f544b540000000000000000000000000000000000000000000000000000000000815250815f90816100ac9190610516565b5080600190816100bc9190610516565b5050505f73ffffffffffffffffffffffffffffffffffffffff168173ffffffffffffffffffffffffffffffffffffffff160361012f575f6040517f1e4fbdf700000000000000000000000000000000000000000000000000000000815260040161012691906105f4565b60405180910390fd5b61013e8161017a60201b60201c565b508073ffffffffffffffffffffffffffffffffffffffff1660808173ffffffffffffffffffffffffffffffffffffffff1681525050505061060d565b5f60065f9054906101000a900473ffffffffffffffffffffffffffffffffffffffff1690508160065f6101000a81548173ffffffffffffffffffffffffffffffffffffffff021916908373ffffffffffffffffffffffffffffffffffffffff1602179055508173ffffffffffffffffffffffffffffffffffffffff168173ffffffffffffffffffffffffffffffffffffffff167f8be0079c531659141344cd1fd0a4f28419497f9722a3daafe3b4186f6b6457e060405160405180910390a35050565b5f5ffd5b5f73ffffffffffffffffffffffffffffffffffffffff82169050919050565b5f61026a82610241565b9050919050565b61027a81610260565b8114610284575f5ffd5b50565b5f8151905061029581610271565b92915050565b5f5f604083850312156102b1576102b061023d565b5b5f6102be85828601610287565b92505060206102cf85828601610287565b9150509250929050565b5f81519050919050565b7f4e487b71000000000000000000000000000000000000000000000000000000005f52604160045260245ffd5b7f4e487b71000000000000000000000000000000000000000000000000000000005f52602260045260245ffd5b5f600282049050600182168061035457607f821691505b60208210810361036757610366610310565b5b50919050565b5f819050815f5260205f209050919050565b5f6020601f8301049050919050565b5f82821b905092915050565b5f600883026103c97fffffffffffffffffffffffffffffffffffffffffffffffffffffffffffffffff8261038e565b6103d3868361038e565b95508019841693508086168417925050509392505050565b5f819050919050565b5f819050919050565b5f61041761041261040d846103eb565b6103f4565b6103eb565b9050919050565b5f819050919050565b610430836103fd565b61044461043c8261041e565b84845461039a565b825550505050565b5f5f905090565b61045b61044c565b610466818484610427565b505050565b5b818110156104895761047e5f82610453565b60018101905061046c565b5050565b601f8211156104ce5761049f8161036d565b6104a88461037f565b810160208510156104b7578190505b6104cb6104c38561037f565b83018261046b565b50505b505050565b5f82821c905092915050565b5f6104ee5f19846008026104d3565b1980831691505092915050565b5f61050683836104df565b9150826002028217905092915050565b61051f826102d9565b67ffffffffffffffff811115610538576105376102e3565b5b610542825461033d565b61054d82828561048d565b5f60209050601f83116001811461057e575f841561056c578287015190505b61057685826104fb565b8655506105dd565b601f19841661058c8661036d565b5f5b828110156105b35784890151825560018201915060208501945060208101905061058e565b868310156105d057848901516105cc601f8916826104df565b8355505b6001600288020188555050505b505050505050565b6105ee81610260565b82525050565b5f6020820190506106075f8301846105e5565b92915050565b60805161306c6106335f395f81816105e601528181610a070152610a97015261306c5ff3fe608060405260043610610129575f3560e01c806370a08231116100aa578063b88d4fde1161006e578063b88d4fde146103d7578063c87b56dd146103ff578063d679c71f1461043b578063e985e9c514610463578063f2fde38b1461049f578063f6ac04da146104c757610129565b806370a0823114610309578063715018a6146103455780638da5cb5b1461035b57806395d89b4114610385578063a22cb465146103af57610129565b80630b791430116100f15780630b7914301461022157806323b872dd14610261578063256d52f61461028957806342842e0e146102a55780636352211e146102cd57610129565b806301ffc9a71461012d578063068f46ce1461016957806306fdde0314610193578063081812fc146101bd578063095ea7b3146101f9575b5f5ffd5b348015610138575f5ffd5b50610153600480360381019061014e9190611f03565b610503565b6040516101609190611f48565b60405180910390f35b348015610174575f5ffd5b5061017d6105e4565b60405161018a9190611fdb565b60405180910390f35b34801561019e575f5ffd5b506101a7610608565b6040516101b49190612064565b60405180910390f35b3480156101c8575f5ffd5b506101e360048036038101906101de91906120b7565b610697565b6040516101f09190612102565b60405180910390f35b348015610204575f5ffd5b5061021f600480360381019061021a9190612145565b6106b2565b005b34801561022c575f5ffd5b50610247600480360381019061024291906120b7565b6106c8565b604051610258959493929190612192565b60405180910390f35b34801561026c575f5ffd5b50610287600480360381019061028291906121ea565b610780565b005b6102a3600480360381019061029e91906120b7565b61087f565b005b3480156102b0575f5ffd5b506102cb60048036038101906102c691906121ea565b610cb0565b005b3480156102d8575f5ffd5b506102f360048036038101906102ee91906120b7565b610ccf565b6040516103009190612102565b60405180910390f35b348015610314575f5ffd5b5061032f600480360381019061032a919061223a565b610ce0565b60405161033c9190612265565b60405180910390f35b348015610350575f5ffd5b50610359610d96565b005b348015610366575f5ffd5b5061036f610da9565b60405161037c9190612102565b60405180910390f35b348015610390575f5ffd5b50610399610dd1565b6040516103a69190612064565b60405180910390f35b3480156103ba575f5ffd5b506103d560048036038101906103d091906122a8565b610e61565b005b3480156103e2575f5ffd5b506103fd60048036038101906103f89190612412565b610e77565b005b34801561040a575f5ffd5b50610425600480360381019061042091906120b7565b610e9c565b6040516104329190612064565b60405180910390f35b348015610446575f5ffd5b50610461600480360381019061045c9190612530565b610fd1565b005b34801561046e575f5ffd5b50610489600480360381019061048491906125c3565b61111d565b6040516104969190611f48565b60405180910390f35b3480156104aa575f5ffd5b506104c560048036038101906104c0919061223a565b6111ab565b005b3480156104d2575f5ffd5b506104ed60048036038101906104e891906120b7565b61122f565b6040516104fa9190612265565b60405180910390f35b5f7f80ac58cd000000000000000000000000000000000000000000000000000000007bffffffffffffffffffffffffffffffffffffffffffffffffffffffff1916827bffffffffffffffffffffffffffffffffffffffffffffffffffffffff191614806105cd57507f5b5e139f000000000000000000000000000000000000000000000000000000007bffffffffffffffffffffffffffffffffffffffffffffffffffffffff1916827bffffffffffffffffffffffffffffffffffffffffffffffffffffffff1916145b806105dd57506105dc82611244565b5b9050919050565b7f000000000000000000000000000000000000000000000000000000000000000081565b60605f80546106169061262e565b80601f01602080910402602001604051908101604052809291908181526020018280546106429061262e565b801561068d5780601f106106645761010080835404028352916020019161068d565b820191905f5260205f20905b81548152906001019060200180831161067057829003601f168201915b5050505050905090565b5f6106a1826112ad565b506106ab82611333565b9050919050565b6106c482826106bf61136c565b611373565b5050565b6008602052805f5260405f205f91509050805f0154908060010154908060020154908060030154908060040180546106ff9061262e565b80601f016020809104026020016040519081016040528092919081815260200182805461072b9061262e565b80156107765780601f1061074d57610100808354040283529160200191610776565b820191905f5260205f20905b81548152906001019060200180831161075957829003601f168201915b5050505050905085565b5f73ffffffffffffffffffffffffffffffffffffffff168273ffffffffffffffffffffffffffffffffffffffff16036107f0575f6040517f64a0ae920000000000000000000000000000000000000000000000000000000081526004016107e79190612102565b60405180910390fd5b5f61080383836107fe61136c565b611385565b90508373ffffffffffffffffffffffffffffffffffffffff168173ffffffffffffffffffffffffffffffffffffffff1614610879578382826040517f64283d7b0000000000000000000000000000000000000000000000000000000081526004016108709392919061265e565b60405180910390fd5b50505050565b5f60085f8381526020019081526020015f2090505f815f0154116108d8576040517f08c379a00000000000000000000000000000000000000000000000000000000081526004016108cf906126dd565b60405180910390fd5b806003015442111561091f576040517f08c379a000000000000000000000000000000000000000000000000000000000815260040161091690612745565b60405180910390fd5b8060010154816002015410610969576040517f08c379a0000000000000000000000000000000000000000000000000000000008152600401610960906127ad565b60405180910390fd5b805f015434146109ae576040517f08c379a00000000000000000000000000000000000000000000000000000000081526004016109a590612815565b60405180910390fd5b806002015f8154809291906109c290612860565b91905055505f600754905060075f8154809291906109df90612860565b91905055508260095f8381526020019081526020015f2081905550610a043382611590565b5f7f000000000000000000000000000000000000000000000000000000000000000073ffffffffffffffffffffffffffffffffffffffff1663fa2af9da6040518163ffffffff1660e01b8152600401602060405180830381865afa158015610a6e573d5f5f3e3d5ffd5b505050506040513d601f19601f82011682018060405250810190610a9291906128e2565b90505f7f000000000000000000000000000000000000000000000000000000000000000073ffffffffffffffffffffffffffffffffffffffff1663cdd78cfc6040518163ffffffff1660e01b8152600401602060405180830381865afa158015610afe573d5f5f3e3d5ffd5b505050506040513d601f19601f82011682018060405250810190610b229190612921565b90505f60648234610b33919061294c565b610b3d91906129ba565b90505f8134610b4c91906129ea565b90505f8473ffffffffffffffffffffffffffffffffffffffff1683604051610b7390612a4a565b5f6040518083038185875af1925050503d805f8114610bad576040519150601f19603f3d011682016040523d82523d5f602084013e610bb2565b606091505b5050905080610bf6576040517f08c379a0000000000000000000000000000000000000000000000000000000008152600401610bed90612aa8565b60405180910390fd5b5f610bff610da9565b73ffffffffffffffffffffffffffffffffffffffff1683604051610c2290612a4a565b5f6040518083038185875af1925050503d805f8114610c5c576040519150601f19603f3d011682016040523d82523d5f602084013e610c61565b606091505b5050905080610ca5576040517f08c379a0000000000000000000000000000000000000000000000000000000008152600401610c9c90612b10565b60405180910390fd5b505050505050505050565b610cca83838360405180602001604052805f815250610e77565b505050565b5f610cd9826112ad565b9050919050565b5f5f73ffffffffffffffffffffffffffffffffffffffff168273ffffffffffffffffffffffffffffffffffffffff1603610d51575f6040517f89c62b64000000000000000000000000000000000000000000000000000000008152600401610d489190612102565b60405180910390fd5b60035f8373ffffffffffffffffffffffffffffffffffffffff1673ffffffffffffffffffffffffffffffffffffffff1681526020019081526020015f20549050919050565b610d9e6115ad565b610da75f611634565b565b5f60065f9054906101000a900473ffffffffffffffffffffffffffffffffffffffff16905090565b606060018054610de09061262e565b80601f0160208091040260200160405190810160405280929190818152602001828054610e0c9061262e565b8015610e575780601f10610e2e57610100808354040283529160200191610e57565b820191905f5260205f20905b815481529060010190602001808311610e3a57829003601f168201915b5050505050905090565b610e73610e6c61136c565b83836116f7565b5050565b610e82848484610780565b610e96610e8d61136c565b85858585611860565b50505050565b60605f73ffffffffffffffffffffffffffffffffffffffff16610ebe83610ccf565b73ffffffffffffffffffffffffffffffffffffffff1603610f14576040517f08c379a0000000000000000000000000000000000000000000000000000000008152600401610f0b90612b78565b60405180910390fd5b5f60095f8481526020019081526020015f205490505f60085f8381526020019081526020015f206004018054610f499061262e565b80601f0160208091040260200160405190810160405280929190818152602001828054610f759061262e565b8015610fc05780601f10610f9757610100808354040283529160200191610fc0565b820191905f5260205f20905b815481529060010190602001808311610fa357829003601f168201915b505050505090508092505050919050565b610fd96115ad565b5f841161101b576040517f08c379a000000000000000000000000000000000000000000000000000000000815260040161101290612be0565b60405180910390fd5b5f831161105d576040517f08c379a000000000000000000000000000000000000000000000000000000000815260040161105490612c48565b60405180910390fd5b42821161109f576040517f08c379a000000000000000000000000000000000000000000000000000000000815260040161109690612cb0565b60405180910390fd5b6040518060a001604052808581526020018481526020015f81526020018381526020018281525060085f8781526020019081526020015f205f820151815f015560208201518160010155604082015181600201556060820151816003015560808201518160040190816111129190612e65565b509050505050505050565b5f60055f8473ffffffffffffffffffffffffffffffffffffffff1673ffffffffffffffffffffffffffffffffffffffff1681526020019081526020015f205f8373ffffffffffffffffffffffffffffffffffffffff1673ffffffffffffffffffffffffffffffffffffffff1681526020019081526020015f205f9054906101000a900460ff16905092915050565b6111b36115ad565b5f73ffffffffffffffffffffffffffffffffffffffff168173ffffffffffffffffffffffffffffffffffffffff1603611223575f6040517f1e4fbdf700000000000000000000000000000000000000000000000000000000815260040161121a9190612102565b60405180910390fd5b61122c81611634565b50565b6009602052805f5260405f205f915090505481565b5f7f01ffc9a7000000000000000000000000000000000000000000000000000000007bffffffffffffffffffffffffffffffffffffffffffffffffffffffff1916827bffffffffffffffffffffffffffffffffffffffffffffffffffffffff1916149050919050565b5f5f6112b883611a0c565b90505f73ffffffffffffffffffffffffffffffffffffffff168173ffffffffffffffffffffffffffffffffffffffff160361132a57826040517f7e2732890000000000000000000000000000000000000000000000000000000081526004016113219190612265565b60405180910390fd5b80915050919050565b5f60045f8381526020019081526020015f205f9054906101000a900473ffffffffffffffffffffffffffffffffffffffff169050919050565b5f33905090565b6113808383836001611a45565b505050565b5f5f61139084611a0c565b90505f73ffffffffffffffffffffffffffffffffffffffff168373ffffffffffffffffffffffffffffffffffffffff16146113d1576113d0818486611c04565b5b5f73ffffffffffffffffffffffffffffffffffffffff168173ffffffffffffffffffffffffffffffffffffffff161461145c576114105f855f5f611a45565b600160035f8373ffffffffffffffffffffffffffffffffffffffff1673ffffffffffffffffffffffffffffffffffffffff1681526020019081526020015f205f82825403925050819055505b5f73ffffffffffffffffffffffffffffffffffffffff168573ffffffffffffffffffffffffffffffffffffffff16146114db57600160035f8773ffffffffffffffffffffffffffffffffffffffff1673ffffffffffffffffffffffffffffffffffffffff1681526020019081526020015f205f82825401925050819055505b8460025f8681526020019081526020015f205f6101000a81548173ffffffffffffffffffffffffffffffffffffffff021916908373ffffffffffffffffffffffffffffffffffffffff160217905550838573ffffffffffffffffffffffffffffffffffffffff168273ffffffffffffffffffffffffffffffffffffffff167fddf252ad1be2c89b69c2b068fc378daa952ba7f163c4a11628f55a4df523b3ef60405160405180910390a4809150509392505050565b6115a9828260405180602001604052805f815250611cc7565b5050565b6115b561136c565b73ffffffffffffffffffffffffffffffffffffffff166115d3610da9565b73ffffffffffffffffffffffffffffffffffffffff1614611632576115f661136c565b6040517f118cdaa70000000000000000000000000000000000000000000000000000000081526004016116299190612102565b60405180910390fd5b565b5f60065f9054906101000a900473ffffffffffffffffffffffffffffffffffffffff1690508160065f6101000a81548173ffffffffffffffffffffffffffffffffffffffff021916908373ffffffffffffffffffffffffffffffffffffffff1602179055508173ffffffffffffffffffffffffffffffffffffffff168173ffffffffffffffffffffffffffffffffffffffff167f8be0079c531659141344cd1fd0a4f28419497f9722a3daafe3b4186f6b6457e060405160405180910390a35050565b5f73ffffffffffffffffffffffffffffffffffffffff168273ffffffffffffffffffffffffffffffffffffffff160361176757816040517f5b08ba1800000000000000000000000000000000000000000000000000000000815260040161175e9190612102565b60405180910390fd5b8060055f8573ffffffffffffffffffffffffffffffffffffffff1673ffffffffffffffffffffffffffffffffffffffff1681526020019081526020015f205f8473ffffffffffffffffffffffffffffffffffffffff1673ffffffffffffffffffffffffffffffffffffffff1681526020019081526020015f205f6101000a81548160ff0219169083151502179055508173ffffffffffffffffffffffffffffffffffffffff168373ffffffffffffffffffffffffffffffffffffffff167f17307eab39ab6107e8899845ad3d59bd9653f200f220920489ca2b5937696c31836040516118539190611f48565b60405180910390a3505050565b5f8373ffffffffffffffffffffffffffffffffffffffff163b1115611a05578273ffffffffffffffffffffffffffffffffffffffff1663150b7a02868685856040518563ffffffff1660e01b81526004016118be9493929190612f86565b6020604051808303815f875af19250505080156118f957506040513d601f19601f820116820180604052508101906118f69190612fe4565b60015b61197a573d805f8114611927576040519150601f19603f3d011682016040523d82523d5f602084013e61192c565b606091505b505f81510361197257836040517f64a0ae920000000000000000000000000000000000000000000000000000000081526004016119699190612102565b60405180910390fd5b805160208201fd5b63150b7a0260e01b7bffffffffffffffffffffffffffffffffffffffffffffffffffffffff1916817bffffffffffffffffffffffffffffffffffffffffffffffffffffffff191614611a0357836040517f64a0ae920000000000000000000000000000000000000000000000000000000081526004016119fa9190612102565b60405180910390fd5b505b5050505050565b5f60025f8381526020019081526020015f205f9054906101000a900473ffffffffffffffffffffffffffffffffffffffff169050919050565b8080611a7d57505f73ffffffffffffffffffffffffffffffffffffffff168273ffffffffffffffffffffffffffffffffffffffff1614155b15611baf575f611a8c846112ad565b90505f73ffffffffffffffffffffffffffffffffffffffff168373ffffffffffffffffffffffffffffffffffffffff1614158015611af657508273ffffffffffffffffffffffffffffffffffffffff168173ffffffffffffffffffffffffffffffffffffffff1614155b8015611b095750611b07818461111d565b155b15611b4b57826040517fa9fbf51f000000000000000000000000000000000000000000000000000000008152600401611b429190612102565b60405180910390fd5b8115611bad57838573ffffffffffffffffffffffffffffffffffffffff168273ffffffffffffffffffffffffffffffffffffffff167f8c5be1e5ebec7d5bd14f71427d1e84f3dd0314c0f7b2291e5b200ac8c7c3b92560405160405180910390a45b505b8360045f8581526020019081526020015f205f6101000a81548173ffffffffffffffffffffffffffffffffffffffff021916908373ffffffffffffffffffffffffffffffffffffffff16021790555050505050565b611c0f838383611cea565b611cc2575f73ffffffffffffffffffffffffffffffffffffffff168373ffffffffffffffffffffffffffffffffffffffff1603611c8357806040517f7e273289000000000000000000000000000000000000000000000000000000008152600401611c7a9190612265565b60405180910390fd5b81816040517f177e802f000000000000000000000000000000000000000000000000000000008152600401611cb992919061300f565b60405180910390fd5b505050565b611cd18383611daa565b611ce5611cdc61136c565b5f858585611860565b505050565b5f5f73ffffffffffffffffffffffffffffffffffffffff168373ffffffffffffffffffffffffffffffffffffffff1614158015611da157508273ffffffffffffffffffffffffffffffffffffffff168473ffffffffffffffffffffffffffffffffffffffff161480611d625750611d61848461111d565b5b80611da057508273ffffffffffffffffffffffffffffffffffffffff16611d8883611333565b73ffffffffffffffffffffffffffffffffffffffff16145b5b90509392505050565b5f73ffffffffffffffffffffffffffffffffffffffff168273ffffffffffffffffffffffffffffffffffffffff1603611e1a575f6040517f64a0ae92000000000000000000000000000000000000000000000000000000008152600401611e119190612102565b60405180910390fd5b5f611e2683835f611385565b90505f73ffffffffffffffffffffffffffffffffffffffff168173ffffffffffffffffffffffffffffffffffffffff1614611e98575f6040517f73c6ac6e000000000000000000000000000000000000000000000000000000008152600401611e8f9190612102565b60405180910390fd5b505050565b5f604051905090565b5f5ffd5b5f5ffd5b5f7fffffffff0000000000000000000000000000000000000000000000000000000082169050919050565b611ee281611eae565b8114611eec575f5ffd5b50565b5f81359050611efd81611ed9565b92915050565b5f60208284031215611f1857611f17611ea6565b5b5f611f2584828501611eef565b91505092915050565b5f8115159050919050565b611f4281611f2e565b82525050565b5f602082019050611f5b5f830184611f39565b92915050565b5f73ffffffffffffffffffffffffffffffffffffffff82169050919050565b5f819050919050565b5f611fa3611f9e611f9984611f61565b611f80565b611f61565b9050919050565b5f611fb482611f89565b9050919050565b5f611fc582611faa565b9050919050565b611fd581611fbb565b82525050565b5f602082019050611fee5f830184611fcc565b92915050565b5f81519050919050565b5f82825260208201905092915050565b8281835e5f83830152505050565b5f601f19601f8301169050919050565b5f61203682611ff4565b6120408185611ffe565b935061205081856020860161200e565b6120598161201c565b840191505092915050565b5f6020820190508181035f83015261207c818461202c565b905092915050565b5f819050919050565b61209681612084565b81146120a0575f5ffd5b50565b5f813590506120b18161208d565b92915050565b5f602082840312156120cc576120cb611ea6565b5b5f6120d9848285016120a3565b91505092915050565b5f6120ec82611f61565b9050919050565b6120fc816120e2565b82525050565b5f6020820190506121155f8301846120f3565b92915050565b612124816120e2565b811461212e575f5ffd5b50565b5f8135905061213f8161211b565b92915050565b5f5f6040838503121561215b5761215a611ea6565b5b5f61216885828601612131565b9250506020612179858286016120a3565b9150509250929050565b61218c81612084565b82525050565b5f60a0820190506121a55f830188612183565b6121b26020830187612183565b6121bf6040830186612183565b6121cc6060830185612183565b81810360808301526121de818461202c565b90509695505050505050565b5f5f5f6060848603121561220157612200611ea6565b5b5f61220e86828701612131565b935050602061221f86828701612131565b9250506040612230868287016120a3565b9150509250925092565b5f6020828403121561224f5761224e611ea6565b5b5f61225c84828501612131565b91505092915050565b5f6020820190506122785f830184612183565b92915050565b61228781611f2e565b8114612291575f5ffd5b50565b5f813590506122a28161227e565b92915050565b5f5f604083850312156122be576122bd611ea6565b5b5f6122cb85828601612131565b92505060206122dc85828601612294565b9150509250929050565b5f5ffd5b5f5ffd5b7f4e487b71000000000000000000000000000000000000000000000000000000005f52604160045260245ffd5b6123248261201c565b810181811067ffffffffffffffff82111715612343576123426122ee565b5b80604052505050565b5f612355611e9d565b9050612361828261231b565b919050565b5f67ffffffffffffffff8211156123805761237f6122ee565b5b6123898261201c565b9050602081019050919050565b828183375f83830152505050565b5f6123b66123b184612366565b61234c565b9050828152602081018484840111156123d2576123d16122ea565b5b6123dd848285612396565b509392505050565b5f82601f8301126123f9576123f86122e6565b5b81356124098482602086016123a4565b91505092915050565b5f5f5f5f6080858703121561242a57612429611ea6565b5b5f61243787828801612131565b945050602061244887828801612131565b9350506040612459878288016120a3565b925050606085013567ffffffffffffffff81111561247a57612479611eaa565b5b612486878288016123e5565b91505092959194509250565b5f67ffffffffffffffff8211156124ac576124ab6122ee565b5b6124b58261201c565b9050602081019050919050565b5f6124d46124cf84612492565b61234c565b9050828152602081018484840111156124f0576124ef6122ea565b5b6124fb848285612396565b509392505050565b5f82601f830112612517576125166122e6565b5b81356125278482602086016124c2565b91505092915050565b5f5f5f5f5f60a0868803121561254957612548611ea6565b5b5f612556888289016120a3565b9550506020612567888289016120a3565b9450506040612578888289016120a3565b9350506060612589888289016120a3565b925050608086013567ffffffffffffffff8111156125aa576125a9611eaa565b5b6125b688828901612503565b9150509295509295909350565b5f5f604083850312156125d9576125d8611ea6565b5b5f6125e685828601612131565b92505060206125f785828601612131565b9150509250929050565b7f4e487b71000000000000000000000000000000000000000000000000000000005f52602260045260245ffd5b5f600282049050600182168061264557607f821691505b60208210810361265857612657612601565b5b50919050565b5f6060820190506126715f8301866120f3565b61267e6020830185612183565b61268b60408301846120f3565b949350505050565b7f4576656e7420646f6573206e6f742065786973740000000000000000000000005f82015250565b5f6126c7601483611ffe565b91506126d282612693565b602082019050919050565b5f6020820190508181035f8301526126f4816126bb565b9050919050565b7f53616c652068617320656e6465640000000000000000000000000000000000005f82015250565b5f61272f600e83611ffe565b915061273a826126fb565b602082019050919050565b5f6020820190508181035f83015261275c81612723565b9050919050565b7f536f6c64206f75740000000000000000000000000000000000000000000000005f82015250565b5f612797600883611ffe565b91506127a282612763565b602082019050919050565b5f6020820190508181035f8301526127c48161278b565b9050919050565b7f496e636f7272656374207061796d656e7420616d6f756e7400000000000000005f82015250565b5f6127ff601883611ffe565b915061280a826127cb565b602082019050919050565b5f6020820190508181035f83015261282c816127f3565b9050919050565b7f4e487b71000000000000000000000000000000000000000000000000000000005f52601160045260245ffd5b5f61286a82612084565b91507fffffffffffffffffffffffffffffffffffffffffffffffffffffffffffffffff820361289c5761289b612833565b5b600182019050919050565b5f6128b182611f61565b9050919050565b6128c1816128a7565b81146128cb575f5ffd5b50565b5f815190506128dc816128b8565b92915050565b5f602082840312156128f7576128f6611ea6565b5b5f612904848285016128ce565b91505092915050565b5f8151905061291b8161208d565b92915050565b5f6020828403121561293657612935611ea6565b5b5f6129438482850161290d565b91505092915050565b5f61295682612084565b915061296183612084565b925082820261296f81612084565b9150828204841483151761298657612985612833565b5b5092915050565b7f4e487b71000000000000000000000000000000000000000000000000000000005f52601260045260245ffd5b5f6129c482612084565b91506129cf83612084565b9250826129df576129de61298d565b5b828204905092915050565b5f6129f482612084565b91506129ff83612084565b9250828203905081811115612a1757612a16612833565b5b92915050565b5f81905092915050565b50565b5f612a355f83612a1d565b9150612a4082612a27565b5f82019050919050565b5f612a5482612a2a565b9150819050919050565b7f506c6174666f726d20666565207472616e73666572206661696c6564000000005f82015250565b5f612a92601c83611ffe565b9150612a9d82612a5e565b602082019050919050565b5f6020820190508181035f830152612abf81612a86565b9050919050565b7f417274697374207061796f7574206661696c65640000000000000000000000005f82015250565b5f612afa601483611ffe565b9150612b0582612ac6565b602082019050919050565b5f6020820190508181035f830152612b2781612aee565b9050919050565b7f5469636b657420646f6573206e6f7420657869737400000000000000000000005f82015250565b5f612b62601583611ffe565b9150612b6d82612b2e565b602082019050919050565b5f6020820190508181035f830152612b8f81612b56565b9050919050565b7f5072696365206d757374206265203e20300000000000000000000000000000005f82015250565b5f612bca601183611ffe565b9150612bd582612b96565b602082019050919050565b5f6020820190508181035f830152612bf781612bbe565b9050919050565b7f4d617820737570706c79206d757374206265203e2030000000000000000000005f82015250565b5f612c32601683611ffe565b9150612c3d82612bfe565b602082019050919050565b5f6020820190508181035f830152612c5f81612c26565b9050919050565b7f446561646c696e65206d75737420626520696e207468652066757475726500005f82015250565b5f612c9a601e83611ffe565b9150612ca582612c66565b602082019050919050565b5f6020820190508181035f830152612cc781612c8e565b9050919050565b5f819050815f5260205f209050919050565b5f6020601f8301049050919050565b5f82821b905092915050565b5f60088302612d2a7fffffffffffffffffffffffffffffffffffffffffffffffffffffffffffffffff82612cef565b612d348683612cef565b95508019841693508086168417925050509392505050565b5f612d66612d61612d5c84612084565b611f80565b612084565b9050919050565b5f819050919050565b612d7f83612d4c565b612d93612d8b82612d6d565b848454612cfb565b825550505050565b5f5f905090565b612daa612d9b565b612db5818484612d76565b505050565b5b81811015612dd857612dcd5f82612da2565b600181019050612dbb565b5050565b601f821115612e1d57612dee81612cce565b612df784612ce0565b81016020851015612e06578190505b612e1a612e1285612ce0565b830182612dba565b50505b505050565b5f82821c905092915050565b5f612e3d5f1984600802612e22565b1980831691505092915050565b5f612e558383612e2e565b9150826002028217905092915050565b612e6e82611ff4565b67ffffffffffffffff811115612e8757612e866122ee565b5b612e91825461262e565b612e9c828285612ddc565b5f60209050601f831160018114612ecd575f8415612ebb578287015190505b612ec58582612e4a565b865550612f2c565b601f198416612edb86612cce565b5f5b82811015612f0257848901518255600182019150602085019450602081019050612edd565b86831015612f1f5784890151612f1b601f891682612e2e565b8355505b6001600288020188555050505b505050505050565b5f81519050919050565b5f82825260208201905092915050565b5f612f5882612f34565b612f628185612f3e565b9350612f7281856020860161200e565b612f7b8161201c565b840191505092915050565b5f608082019050612f995f8301876120f3565b612fa660208301866120f3565b612fb36040830185612183565b8181036060830152612fc58184612f4e565b905095945050505050565b5f81519050612fde81611ed9565b92915050565b5f60208284031215612ff957612ff8611ea6565b5b5f61300684828501612fd0565b91505092915050565b5f6040820190506130225f8301856120f3565b61302f6020830184612183565b939250505056fea2646970667358221220e5120b1e5233c8817032a681acd8b81ffabe6c3d32bf1e6a07ef89da1d42be4564736f6c634300081c0033a26469706673582212202befe04d605502c30d3f2086f53400b74051c6810cf0d0ac51337ac71638c6a564736f6c634300081c0033",
  "linkReferences": {},
  "deployedLinkReferences": {},
  "immutableReferences": {},
  "inputSourceName": "project/contracts/TicketFactory.sol",
  "buildInfoId": "solc-0_8_28-b20cca44538c3e3779a5d6350f5d13468d76026c"
}